:1000000000000020FD0400001F3D0000253D000011
:100010002B3D0000313D0000373D00000000000096
:100020000000000000000000000000006D0500005E
:100030003D3D0000000000001306000073060000B4
:10004000AD3B0000BB3B0000C93B0000D73B0000BC
:10005000E53B0000F33B0000013C00000F3C0000CA
:100060001D3C00002B3C0000393C0000473C0000D8
:10007000553C0000633C0000713C00007F3C0000E8
:100080008D3C0000433D0000493D00004F3D000015
:10009000553D00005B3D0000613D0000673D0000F4
:1000A0006D3D0000733D0000793D00007F3D000084
:1000B000853D00008B3D0000913D00009B3C000011
:1000C000973D0000A93C00009D3D0000B73C0000AA
:1000D000A33D0000C53C0000A93D0000AF3D00006D
:1000E000B53D0000BB3D0000C13D0000C73D000024
:1000F000CD3D0000D33D0000D93D0000DF3D0000B4
:100100000D0500000D0500000D0500000D050000A7
:10011000E53D0000EB3D0000F13D0000F73D000033
:10012000FD3D0000033E0000093E00000F3E0000C0
:10013000153E00001B3E0000213E0000273E00004F
:100140002D3E0000333E0000D33C0000393E00004D
:10015000E13C00003F3E0000453E00004B3E0000F9
:10016000513E0000573E00005D3E0000633E00002F
:10017000693E00006F3E0000753E00007B3E0000BF
:10018000813E00000D0500000D0500000D0500007A
:100190000D0500000D0500000D0500000D05000017
:1001A0000D0500000D0500000D0500000D05000007
:1001B0000D0500000D0500000D0500000D050000F7
:1001C0000D0500000D0500000D0500000D050000E7
:1003F0000D0500000D0500000D050000FFFFFFFFCB
:10040000FFFFFFFFFFFFFFFFFFFFFFFFFEFFFFFFFD
:1004400010B5054C237833B9044B13B10448AFF30E
:1004500000800123237010BD300E0020000000003A
:1004600008AF000008B5034B1BB103490348AFF3C5
:10047000008008BD00000000340E002008AF00001E
:10048000A3F5803A704700BF174B002B08BF134BF2
:100490009D46FFF7F5FF00218B460F461348144A8F
:1004A000121A07F06FFC0E4B002B00D098470D4B33
:1004B000002B00D098470020002104000D000D48BB
:1004C000002802D00C4807F039F907F07DF9200028
:1004D000290003F047FB07F03DF900BF00000800CA
:1004E000000000009538000000000020300E0020C1
:1004F000C84000203D7700007577000072B603F019
:1005000049FE03F0DFFD62B6FFF7BEFFFFF7FEBF57
:1005100080F309887047EFF309807047684680F3DD
:1005200009885A480078C00714BF0220032080F3CE
:1005300014887047DFF858C1EFF305831B0618BF16
:100540006047EFF31483DB0708BF604700DF7047A5
:10055000DFF840C1EFF305831B0618BF6047EFF3D8
:100560001483DB0708BF604700DF7047EFF30980A3
:10057000816911F8021CE1BB90E80F1010B5E0474B
:10058000BDE81040EFF3098C8CE80700424B93E87C
:100590000600914208BF704741B91EF0100F16D1F6
:1005A0003E49086820F00100086010E01EF0100FBE
:1005B00006BF2CED108A0120002081F825002CE9CF
:1005C000F00FC1F828C00CB405F096F90CBC1A6005
:1005D000D2F828C0BCE8F00F92F8250000280EBF22
:1005E0006FF0020E6FF0120EBCEC108A8CF30988CB
:1005F000704710B52A4A1268914209D8294C54F81C
:10060000214090E80F10A047EFF3098C8CE80F0011
:1006100010BD10B505F0E2F8BDE810401E4B93E8A0
:100620000600914208BF7047EFF3098C1EF0100FCF
:1006300006BF2CED108A0120002081F825002CE94E
:10064000F00FC1F828C00CB405F056F90CBC1A60C4
:10065000D2F828C0BCE8F00F92F8250000280EBFA1
:100660006FF0020E6FF0120EBCEC108A8CF309884A
:10067000704710B505F022F9FFF7CEBF10B505F0B1
:100680001BF905F01BF9FFF7C7BF0000A8A3000086
:1006900069510000855100006440002034EF00E003
:1006A00000000000FCFFFFFF81F0004102E000BFFE
:1006B00083F0004330B54FEA41044FEA430594EA22
:1006C000050F08BF90EA020F1FBF54EA000C55EA5D
:1006D000020C7FEA645C7FEA655C00F0E2804FEA2E
:1006E0005454D4EB5555B8BF6D420CDD2C4480EA10
:1006F000020281EA030382EA000083EA010180EA40
:10070000020281EA0303362D88BF30BD11F0004F8D
:100710004FEA01314FF4801C4CEA113102D04042C3
:1007200061EB410113F0004F4FEA03334CEA1333FE
:1007300002D0524263EB430394EA050F00F0A78016
:10074000A4F10104D5F1200E0DDB02FA0EFC22FA11
:1007500005F2801841F1000103FA0EF2801843FA05
:1007600005F359410EE0A5F120050EF1200E012AF6
:1007700003FA0EFC28BF4CF0020C43FA05F3C01834
:1007800051EBE37101F0004507D54FF0000EDCF1AD
:10079000000C7EEB00006EEB0101B1F5801F1BD356
:1007A000B1F5001F0CD349085FEA30004FEA3C0C5A
:1007B00004F101044FEA445212F5800F80F09A8050
:1007C000BCF1004F08BF5FEA500C50F1000041EB54
:1007D000045141EA050130BD5FEA4C0C404141EB58
:1007E0000101013C28BFB1F5801FE9D291F0000F53
:1007F00004BF01460020B1FA81F308BF2033A3F102
:100800000B03B3F120020CDA0C3208DD02F1140CF8
:10081000C2F10C0201FA0CF021FA02F10CE002F133
:100820001402D8BFC2F1200C01FA02F120FA0CFC2C
:10083000DCBF41EA0C019040E41AA2BF01EB045175
:10084000294330BD6FEA04041F3C1CDA0C340EDC73
:1008500004F11404C4F1200220FA04F001FA02F3B6
:1008600040EA030021FA04F345EA030130BDC4F174
:100870000C04C4F1200220FA02F001FA04F340EA69
:100880000300294630BD21FA04F0294630BD94F01A
:10089000000F83F4801306BF81F480110134013D01
:1008A0004EE77FEA645C18BF7FEA655C29D094EA72
:1008B000050F08BF90EA020F05D054EA000C04BFF0
:1008C0001946104630BD91EA030F1EBF00210020DB
:1008D00030BD5FEA545C05D14000494128BF41F07A
:1008E000004130BD14F580043CBF01F5801130BDDE
:1008F00001F0004545F0FE4141F470014FF0000069
:1009000030BD7FEA645C1ABF194610467FEA655C19
:100910001CBF0B46024650EA013406BF52EA0335BB
:1009200091EA030F41F4002130BD00BF90F0000FA9
:1009300004BF0021704730B54FF4806404F13204E5
:100940004FF000054FF0000150E700BF90F0000F9E
:1009500004BF0021704730B54FF4806404F13204C5
:1009600010F0004548BF40424FF000013EE700BF95
:1009700042004FEAE2014FEA31014FEA02701FBF25
:1009800012F07F4393F07F4F81F06051704732F057
:100990007F4208BF704793F07F4F04BF41F40021AE
:1009A000704730B54FF4607401F0004521F000410C
:1009B0001CE700BF50EA010208BF704730B54FF096
:1009C00000050AE050EA010208BF704730B511F097
:1009D000004502D5404261EB41014FF4806404F1CF
:1009E00032045FEA915C3FF4D8AE4FF003025FEA55
:1009F000DC0C18BF03325FEADC0C18BF033202EBD9
:100A0000DC02C2F1200300FA03FC20FA02F001FA32
:100A100003FE40EA0E0021FA02F11444BDE600BFD5
:100A200070B54FF0FF0C4CF4E06C1CEA11541DBF84
:100A30001CEA135594EA0C0F95EA0C0F00F0DEF84F
:100A40002C4481EA030621EA4C5123EA4C5350EA34
:100A5000013518BF52EA033541F4801143F4801385
:100A600038D0A0FB02CE4FF00005E1FB02E506F016
:100A70000042E0FB03E54FF00006E1FB03569CF06B
:100A8000000F18BF4EF0010EA4F1FF04B6F5007F71
:100A900064F5407404D25FEA4E0E6D4146EB0606E3
:100AA00042EAC62141EA55514FEAC52040EA5E506C
:100AB0004FEACE2EB4F1FD0C88BFBCF5E06F1ED816
:100AC000BEF1004F08BF5FEA500E50F1000041EB4D
:100AD000045170BD06F0004646EA010140EA0200FA
:100AE00081EA0301B4EB5C04C2BFD4EB0C0541EA1C
:100AF000045170BD41F480114FF0000E013C00F331
:100B0000AB8014F1360FDEBF002001F0004170BD54
:100B1000C4F10004203C35DA0C341BDC04F114046D
:100B2000C4F1200500FA05F320FA04F001FA05F2F9
:100B300040EA020001F0004221F0004110EBD370C6
:100B400021FA04F642EB06015EEA430E08BF20EAF2
:100B5000D37070BDC4F10C04C4F1200500FA04F395
:100B600020FA05F001FA04F240EA020001F0004127
:100B700010EBD37041F100015EEA430E08BF20EA9A
:100B8000D37070BDC4F1200500FA05F24EEA020EE2
:100B900020FA04F301FA05F243EA020321FA04F011
:100BA00001F0004121FA04F220EA020000EBD370C8
:100BB0005EEA430E08BF20EAD37070BD94F0000FC8
:100BC0000FD101F00046400041EB010111F4801FFC
:100BD00008BF013CF7D041EA060195F0000F18BFAD
:100BE000704703F00046520043EB030313F4801FE9
:100BF00008BF013DF7D043EA0603704794EA0C0FA3
:100C00000CEA135518BF95EA0C0F0CD050EA4106B8
:100C100018BF52EA4306D1D181EA030101F0004135
:100C20004FF0000070BD50EA410606BF104619465D
:100C300052EA430619D094EA0C0F02D150EA013669
:100C400013D195EA0C0F05D152EA03361CBF1046AA
:100C500019460AD181EA030101F0004141F0FE4149
:100C600041F470014FF0000070BD41F0FE4141F4CD
:100C7000780170BD70B54FF0FF0C4CF4E06C1CEACD
:100C800011541DBF1CEA135594EA0C0F95EA0C0F82
:100C900000F0A7F8A4EB050481EA030E52EA03353D
:100CA0004FEA013100F088804FEA03334FF080555E
:100CB00045EA131343EA12634FEA022245EA11158B
:100CC00045EA10654FEA00260EF000419D4208BF3C
:100CD000964244F1FD0404F5407402D25B084FEAE9
:100CE0003202B61A65EB03055B084FEA32024FF495
:100CF00080104FF4002CB6EB020E75EB030E22BFF2
:100D0000B61A754640EA0C005B084FEA3202B6EBB1
:100D1000020E75EB030E22BFB61A754640EA5C0060
:100D20005B084FEA3202B6EB020E75EB030E22BFF0
:100D3000B61A754640EA9C005B084FEA3202B6EBF1
:100D4000020E75EB030E22BFB61A754640EADC00B0
:100D500055EA060E18D04FEA051545EA16754FEA12
:100D600006164FEAC30343EA52734FEAC2025FEA30
:100D70001C1CC0D111F4801F0BD141EA00014FF0BF
:100D800000004FF0004CB6E711F4801F04BF014390
:100D90000020B4F1FD0C88BFBCF5E06F3FF6AFAEAC
:100DA000B5EB030C04BFB6EB020C5FEA500C50F13C
:100DB000000041EB045170BD0EF0004E4EEA1131BF
:100DC00014EB5C04C2BFD4EB0C0541EA045170BDC6
:100DD00041F480114FF0000E013C90E645EA060E0A
:100DE0008DE60CEA135594EA0C0F08BF95EA0C0F38
:100DF0003FF43BAF94EA0C0F0AD150EA01347FF480
:100E000034AF95EA0C0F7FF425AF104619462CE756
:100E100095EA0C0F06D152EA03353FF4FDAE1046B9
:100E2000194622E750EA410618BF52EA43067FF40A
:100E3000C5AE50EA41047FF40DAF52EA43057FF49A
:100E4000EBAE12E74FF0FF3C06E000BF4FF0010CA5
:100E500002E000BF4FF0010C4DF804CD4FEA410C09
:100E60007FEA6C5C4FEA430C18BF7FEA6C5C1BD0D6
:100E700001B050EA410C0CBF52EA430C91EA030F57
:100E800002BF90EA020F0020704710F1000F91EAB4
:100E9000030F58BF994208BF90422CBFD8176FEA82
:100EA000E37040F0010070474FEA410C7FEA6C5C50
:100EB00002D150EA013C07D14FEA430C7FEA6C5C57
:100EC000D6D152EA033CD3D05DF8040B704700BF83
:100ED0008446104662468C461946634600E000BFD1
:100EE00001B5FFF7B7FF002848BF10F1000F01BDA3
:100EF0004DF808EDFFF7F4FF0CBF012000205DF86E
:100F000008FB00BF4DF808EDFFF7EAFF34BF0120F2
:100F100000205DF808FB00BF4DF808EDFFF7E0FF8B
:100F200094BF012000205DF808FB00BF4DF808EDDC
:100F3000FFF7CEFF94BF012000205DF808FB00BF43
:100F40004DF808EDFFF7C4FF34BF012000205DF825
:100F500008FB00BF4A0011D212F5001211D20DD5C4
:100F60006FF47873B3EB62520ED44FEAC12343F0AF
:100F7000004343EA505323FA02F070474FF0000059
:100F8000704750EA013002D14FF0FF3070474FF008
:100F90000000704753B94AB9002908BF00281CBF98
:100FA0004FF0FF314FF0FF3001F0C0B8ADF1080C49
:100FB0006DE904CE00F006F8DDF804E0DDE9022377
:100FC00004B070472DE9F047089D04468C46002B7D
:100FD00040F083808A42174647D9B2FA82F242B182
:100FE000C2F1200024FA00F09140974040EA010C41
:100FF00094404FEA1748230CBCFBF8F61FFA87FE13
:1010000008FB16C143EA014306FB0EF1994209D9D8
:10101000FB1806F1FF3080F01981994240F21681E9
:10102000023E3B445B1AA4B2B3FBF8F008FB10335A
:1010300044EA034400FB0EFEA64509D93C1900F121
:10104000FF3380F00581A64540F2028102383C441E
:1010500040EA0640A4EB0E0400261DB1D440002354
:10106000C5E900433146BDE8F08702B9FFDEB2FAB8
:1010700082F2002A50D1CB1B4FEA174E1FFA87F895
:101080000126B3FBFEFC210C0EFB1C3341EA03419D
:1010900008FB0CF38B4207D979180CF1FF3002D210
:1010A0008B4200F2E9808446C91AA3B2B1FBFEF07C
:1010B0000EFB101143EA014408FB00F8A04507D9D4
:1010C0003C1900F1FF3302D2A04500F2D980184646
:1010D000A4EB080440EA0C40BFE78B4209D9002D7D
:1010E00000F0B1800026C5E9000130463146BDE878
:1010F000F087B3FA83F6002E4AD18B4202D38242A4
:1011000000F2B880841A61EB030101208C46002DA7
:10111000A8D0C5E9004CA5E7C2F1200320FA03F6E8
:10112000974001FA02F04FEA174ED9403043030CC2
:10113000B1FBFEF61FFA87F80EFB161143EA0143D6
:1011400006FB08F1994204FA02F409D9FB1806F1EA
:10115000FF3C80F08D80994240F28A80023E3B4401
:101160005B1A81B2B3FBFEF00EFB103341EA034180
:1011700000FB08F38B4207D9791800F1FF3C73D2CA
:101180008B4271D902383944CB1A40EA064678E7D7
:10119000C6F1200C03FA06F422FA0CF31C4320FAE1
:1011A0000CF701FA06F34FEA144E21FA0CF11F4333
:1011B0003B0CB1FBFEF91FFA84F80EFB191143EA50
:1011C000014109FB08FA8A4502FA06F200FA06F321
:1011D00008D9611809F1FF3048D28A4546D9A9F1EA
:1011E00002092144A1EB0A01BFB2B1FBFEF00EFBE4
:1011F000101147EA014700FB08F8B84507D9E7197D
:1012000000F1FF312ED2B8452CD90238274440EAEC
:101210000940A7EB0807A0FB02894F45C64649468F
:101220001AD317D05DB1B3EB0E0267EB010707FAD3
:101230000CFCF2404CEA0202F740C5E90027002608
:101240003146BDE8F0872E4628460BE70646E9E61C
:101250001846FDE64345E5D2B8EB020E69EB040102
:101260000138DFE70846D2E760468DE78146B9E7F7
:10127000664675E730464AE7ACF1020C394413E79D
:1012800002383C4424E700BF03685A004CBF43F0D7
:10129000004323F000431844704700BF2DE9F84392
:1012A00029B34F1E044615463E464FF0000808EB92
:1012B000060101EBD171491004EBC1094846FFF763
:1012C000E3FF0346C80008308F42204409D0AB42F8
:1012D00009D8FFF7D9FF0138A8420AD201F1010865
:1012E000E5E7AB4205D9884501D04E1EDFE74FF058
:1012F00000094846BDE8F883012807D0022807D036
:10130000044B00280CBF1846002070470248704765
:1013100002487047BD190000C1190000C51900003E
:1013200030B5234B83B004468D1E3BB301A928463C
:10133000AFF30080E8B101992A46FFF7AFFF0146FD
:10134000B8B1FFF7A1FF4B68A064012B2BD0002B95
:1013500001F1040023DBFFF797FF0023C4E9130327
:101360000368002B10DBFFF78FFF2061002003B024
:1013700030BD00230920236103B030BD0D490E4864
:10138000091AC9100191D7E7C3F30360FFF7B4FF4F
:101390000028206114BF0020092003B030BD0123C4
:1013A000C4E91303DCE7002323610520DFE700BF66
:1013B0000000000080B2000088B000000368DA0777
:1013C00010B5044606D49B0700F1480009D500F08B
:1013D0004BFC2368590709D51A070ED5DB0613D530
:1013E00010BD00F039FC23685907F5D404F1D00092
:1013F00000F042FC23681A07F0D404F5A87000F04E
:1014000043FC2368DB06EBD404F5E870BDE810402C
:1014100000F07EBC0346006800B11844704700BF6E
:1014200009207047704700BF70B504460E46316C06
:101430002046FFF775FF054688B9336C6361324675
:1014400023692146012098470828F0D0072806D1B3
:101450002846316CFFF7E6FF301D00F0F1FB06F087
:1014600047F900BF2DE9F0470D1D064614460FCD84
:10147000ADF5727D0DF10C0CACE80F000FCDACE8B2
:101480000F000FCDACE80F0095E80F0002ADF76834
:10149000D6F818808CE80F0000232B6021E02B6C1D
:1014A00073614FF4F07229467AA800F041FE336967
:1014B0007AAA314650469847889BCDE90058214684
:1014C0006B648146334632460120B8470446E8B98A
:1014D0004FF4F0727AA9284600F02AFEB9F1080FFD
:1014E0001BD1296C3046FFF71BFF09345FFA84FAE1
:1014F00081460028D3D0AB6B4AF01001CDE90058EB
:1015000032466B6401203346B84708B14FF00909F1
:1015100048460DF5727DBDE8F087B9F1070FF5D1AA
:101520002046296CFFF77EFF03A800F089FB00BF6F
:10153000406C7047F0B5CB6B0B640E1D0F46054633
:101540000FCEF9B001AC0FC40FCE0FC40FCE0FC435
:1015500096E80F004FF0FF3684E80F00009606E093
:101560002B696A46294698470828044608D11099ED
:101570002846FFF7D5FE0028F2D0092079B0F0BD4B
:101580006846FFF71BFF062CF7D139462846FFF7C0
:101590004BFF00BF30B4DD6BC160826119461D6432
:1015A000002230BC5EE700BF70B5C66843690B64BB
:1015B000AEB903690A4604460D4601460220984723
:1015C000072805D008280FD129462046FFF72CFF11
:1015D0003046296CFFF726FF281D00F031FB012261
:1015E000FFF740FF06F084F806F082F8C2681AB1EF
:1015F000CA6B0A64002235E79CE700BF704700BF52
:10160000836801460BB1012018477047012912D0A9
:1016100009D873B90F2A0CD800EB82021846536818
:10162000009A136070470339012994BF01200220FA
:101630007047022070470846704700BF10B584B05D
:10164000002303AC0A4600941946FFF7DFFF039816
:1016500004B010BD012912D009D873B90F2A0CD8D3
:1016600000EB8200009A1268426018467047033906
:10167000012994BF012002207047022070470846CC
:10168000704700BF10B584B0002303AC03920094F0
:101690000A461946FFF7DEFF04B010BDF0B5D36B64
:1016A0001364151D8C4606460FCDADF50F7D17ACA6
:1016B0000FC40FCD0FC40FCD0FC495E80F004FF02E
:1016C000FF3784E80F006546169710E0FFF7DAFF52
:1016D000294616A8B047034616AA6946082083B9CA
:1016E000049B9847052804460CD0092809D0269960
:1016F0006846FFF715FE03466A460C2116A8002B24
:10170000E4D0092416A8FFF759FE20460DF50F7DF9
:10171000F0BD00BF2DE9F04FCC6C89B00D4654F8F8
:10172000041B0694174600F003081E46002B79D0D0
:101730000B0CDAB209048DF81D30022304EB82048D
:1017400005918DF81C302B6DB8F1020F08BFAC6B02
:1017500013F001030CD0384605A900F073FB18B94B
:10176000082009B0BDE8F08F092009B0BDE8F08F6E
:10177000D4F800A0BAF1000FEDD0019300F00803F7
:101780000293022E4AD0B4F800A0B4F802900434B8
:10179000AA6C29F0010B0F2138469344FFF74EFF46
:1017A000834539D82AF001025A44824294BF00206E
:1017B00001204FEA490303F002030AF0010A43EA59
:1017C0000A03012B49D0022B32D0002BCCD1B8F127
:1017D000000F02D0002840F0CD800434D4F800A0DF
:1017E000BAF1000FCDD105A9384600F02BFB002837
:1017F000BAD1019B002BB3D00F213846FFF71EFF53
:101800000E2102463846FFF73DFF38466A4A0F214F
:10181000FFF738FF0720A8E70020CAE7D4F80490B4
:101820000834B5E7090203230591ADF81C308AE7B7
:10183000236823F0004BB8F1000F45D128B1029A7C
:10184000002A5CD0BBF1000F74D0002B00DA043406
:101850000BF1010B04EB8B04C0E7B8F1000F19D1B9
:10186000B0B1D4E90023991C4FEAD2723FF47CAFA7
:1018700005F158010133049100F09080201DFFF71D
:10188000C9FD04AB01462846AFF3008000285BD1B8
:101890000834A3E70D213846D5F82090FFF7CEFE97
:1018A0008145F5D1AB6A9C42F2D12046FFF7ECFCB2
:1018B0000F2102463846FFF7E5FE38462A4600214A
:1018C000FFF7E0FE072050E70D213846D5F82090BD
:1018D000FFF7B4FE814501D02368B6E7AB6A9C42AE
:1018E000FAD104220021C5E90B12A318C5F828B0CB
:1018F0006B6323688B4259DB01230193A8E705F151
:101900005803CDF80C8004F1040AB04691461E46F7
:101910000DE00496FFF77EFD04AB01460022284649
:10192000AFF3008009F101090AF1040AE8B9D945C9
:101930005046EED138460D21FFF780FE049B286209
:10194000C5E90934062010E781460D213846FFF726
:1019500075FEB9F1020F286225D12B46049A43F88F
:101960002C2F6B62AC620620FFE646462368DDF84A
:101970000C806AE72046FFF787FC04340246AC631C
:1019800028461446AFF3008000283FF4EDAE3846F9
:1019900022460F21FFF776FE0720E6E638460D21A6
:1019A000FFF74CFE2862049B6B62DBE70BF1010042
:1019B00004EB80007AE700BF000000000023A9E6E6
:1019C0000123A7E60223A5E62DE9F0430646C3B0AE
:1019D00015461C46042900F2B980DFE801F09A534D
:1019E000B7290300002C40F0B180102A00F2AE802D
:1019F0000368D80600F1F38020AF384600F092F972
:101A0000B06B0023012404FA03F22A42014604D0F9
:101A100051F8042B47F8232008460133042BF2D158
:101A2000B063384600F074F9002043B0BDE8F0839D
:101A3000032C40F08B8094B204EB1243102B4FEA3E
:101A4000124500F2838003681F0700F1D08020AFA9
:101A5000384600F03BF907EBC501B56B54B10B46B6
:101A6000E81A01EBC401E4001A5843F8042B8B4236
:101A7000FAD125443846B56300F006F9002043B09A
:101A8000BDE8F083012C4FEA124895B25AD0052CDC
:101A90005CD108EB0509B9F1200F57D8B8F10F0F49
:101AA00077D9A946002D40F08880B36B6DB320AF85
:101AB0004FF0000907EBC807043F03EBC50553F8D7
:101AC000041B47F8041FAB42F9D1B9F1000F0FD046
:101AD0006F464146102938BF102107EBC1018439F8
:101AE00003EBC90553F8040B41F8040FAB42F9D1DD
:101AF000012C00F08480B8F10F0FB56345D9B9F11E
:101B0000000F02D0684600F0B7F8002043B0BDE8EF
:101B1000F083DCB9876B2346012094B206F1040CF4
:101B200000FA03F22242394604D051F8042B4CF853
:101B300023200F460133102BF2D115F40050E4D1CD
:101B4000B76304E008EB0503102B03D9022043B070
:101B5000BDE8F083B8F10F0FF8D83368DA0706D57F
:101B6000304623F0030340F8483B00F079F820AFFB
:101B7000384600F075F8B36B002D99D11D46043539
:101B8000B563384600F068F8BFE720A800F06CF8AD
:101B9000B5E7B9F1100F40D9A9F110093368D90799
:101BA00008D523F00103304643F0020340F8483BD8
:101BB00000F05EF8B9F1000F32D033685A0720D434
:101BC000B8F10F0F25D96F463846C8F1100500F05F
:101BD00057F8002DB36B7FF77CAF20AF6AE723F097
:101BE0001003336006F5E87000F09CF804E723F07A
:101BF0000803036000F5A87000F068F827E720AF3D
:101C0000BDE7304623F0040340F8D03B00F038F83D
:101C1000D6E720A800F02CF8D5E74FF00009BDE783
:101C2000B8F10F0F3FF641AF20AF384600F020F873
:101C3000B36B002D7FF43CAF384600F015F864E735
:101C400000F1340191E838009C46A6464CF8045D4A
:101C500090E8FF0FE54600BD90EC210B704700BFF8
:101C600080EC210B704700BF90EC200B704700BF49
:101C700080EC200B704700BFD0EC200B704700BFFA
:101C8000C0EC200B704700BFF0EC0201F0EC021139
:101C9000F0EC0221F0EC0231F0EC0241F0EC0251E8
:101CA000F0EC0261F0EC0271F0EC0281F0EC0291D8
:101CB000F0EC02A1F0EC02B1F0EC02C1F0EC02D1C8
:101CC000F0EC02E1F0EC02F1704700BFE0EC020141
:101CD000E0EC0211E0EC0221E0EC0231E0EC024128
:101CE000E0EC0251E0EC0261E0EC0271E0EC028118
:101CF000E0EC0291E0EC02A1E0EC02B1E0EC02C108
:101D0000E0EC02D1E0EC02E1E0EC02F1704700BF50
:101D1000B0FC0181B0FC0191B0FC01A1B0FC01B1AB
:101D2000704700BFA0FC0181A0FC0191A0FC01A1B3
:101D3000A0FC01B1704700BFEC4600B52DE9005092
:101D40002DE9FF1F4FF000032DE90C0001A9FFF75B
:101D5000F1FBDDF840E012B0704700BFEC4600B583
:101D60002DE900502DE9FF1F4FF000032DE90C0075
:101D700001A9FFF719FCDDF840E012B0704700BF81
:101D8000EC4600B52DE900502DE9FF1F4FF0000390
:101D90002DE90C0001A9FFF729FCDDF840E012B0A5
:101DA000704700BFEC4600B52DE900502DE9FF1F3C
:101DB0004FF000032DE90C0001ABFFF7EBFBDDF862
:101DC00040E012B0704700BFEC4600B52DE900506E
:101DD0002DE9FF1F4FF000032DE90C0001AAFFF7CA
:101DE0005DFCDDF840E012B0704700BF027A7AB9BE
:101DF000437AA3B14268013B10B4437213680321D4
:101E0000141D01721A024460026010BC180E704763
:101E10000368013A02721A020260180E7047B0207D
:101E2000704700BF00B585B003AA00230092194691
:101E30000C22FFF7EBFB039805B05DF804FB00BF35
:101E4000F0E700BF2DE9F043054685B00E464FF0A0
:101E500000083046FFF7CAFFB028044600F0B28001
:101E6000070620D500F0F003802B4DD0902B36D004
:101E7000A02B60D0B02B74D0C02B00F08B8000F072
:101E8000F803D02B0BD100F00702013242F40022FC
:101E9000052301212846FFF797FD0028D9D0092006
:101EA00005B0BDE8F0830DF10C0900231946870049
:101EB000CDF800900D222846FFF7A8FBFFB2039B48
:101EC000CDF80090043760064CBFDF1BFF180023DD
:101ED00019460D2228460397FFF7BCFBB9E700F02F
:101EE0000D030D2BDBD003AF002300F00F021946CA
:101EF00000972846FFF78AFB0023009719460D221A
:101F00002846FFF7A7FBA4E73046FFF76FFF240240
:101F10002043B0F5004FC2D004010023A2B21946FD
:101F20002846FFF751FD0028B9D114F4004F18BF1F
:101F30004FF001088DE7C24302F007034FF47F62C0
:101F40001A41010702F47F624FF0000348BF42F4D8
:101F5000804219462846FFF737FD00283FF479AF45
:101F60009DE7B12833D0B22800F08B80B32839D058
:101F700000F0FC03B42B92D000F0070201320123E1
:101F800042F4002219462846FFF71EFD00283FF4C0
:101F900060AF84E7C62842D0C7284CD000F0F803D1
:101FA000C02B5BD0C82860D0C9287FF478AF3046FA
:101FB000FFF71CFF020300F00F0002F47022013053
:101FC000024365E7B8F1000F18D0002068E73046FB
:101FD000FFF70CFF024600283FF461AF10F0F0035A
:101FE000D0D05CE73046FFF701FF010300F00F009F
:101FF00001F47021421C01230A43C3E703AC4346AA
:102000000E22414600942846FFF700FB0094284624
:1020100043460F224146FFF71DFB404640E730464E
:10202000FFF7E4FE010300F00F0001F47021421CF1
:1020300003230A43A6E73046FFF7D8FE02460028EE
:102040003FF42DAF10F0F0037FF429AF04212846B0
:10205000FFF7BAFC00283FF4FCAE20E700F00F02C7
:102060000132032342F420228CE73046FFF7BEFE04
:1020700000F0F00200F00F031032013343EA0232A5
:1020800006E700230DF10C090D221946CDF800904A
:102090002846FFF7BBFA3046FFF7A8FE02064FF0CE
:1020A00002070CD5039B00F07F00B8400344304684
:1020B0000393FFF79BFE030607F10707F2D4039B88
:1020C000CDF8009000F07F0403F50172BC400023BE
:1020D000144419460D2228460394FFF7BBFAB8E6CC
:1020E00010B5C26C84B0536803248DF80C401B02F9
:1020F00002F108040846D279019301A902948DF8EF
:102100000D20FFF79FFE04B010BD00BF08B5FFF71C
:1021100097FE806C08BD00BF08B5FFF791FEC06C4C
:10212000C379023300EB830008BD00BF704700BFD6
:10213000844641EA000313F003036DD1403A41D3D2
:1021400051F8043B40F8043B51F8043B40F8043B91
:1021500051F8043B40F8043B51F8043B40F8043B81
:1021600051F8043B40F8043B51F8043B40F8043B71
:1021700051F8043B40F8043B51F8043B40F8043B61
:1021800051F8043B40F8043B51F8043B40F8043B51
:1021900051F8043B40F8043B51F8043B40F8043B41
:1021A00051F8043B40F8043B51F8043B40F8043B31
:1021B00051F8043B40F8043B51F8043B40F8043B21
:1021C000403ABDD2303211D351F8043B40F8043BC1
:1021D00051F8043B40F8043B51F8043B40F8043B01
:1021E00051F8043B40F8043B103AEDD20C3205D3D1
:1021F00051F8043B40F8043B043AF9D2043208D0C9
:10220000D2071CBF11F8013B00F8013B01D30B883A
:1022100003806046704700BF082A13D38B078DD018
:1022200010F003038AD0C3F10403D21ADB071CBFEA
:1022300011F8013B00F8013B80D331F8023B20F854
:10224000023B7BE7043AD9D3013A11F8013B00F88D
:10225000013BF9D20B7803704B7843708B78837015
:102260006046704700000000000000000000000011
:1022700001F0FF01102A2BDB10F0070F08D010F837
:10228000013B013A8B422DD010F0070F42B3F6D13B
:10229000F0B441EA012141EA014122F007047FF054
:1022A00000070023F0E80256083C85EA010586EAAB
:1022B000010685FA47F5A3FA87F586FA47F6A5FAE7
:1022C00087F68EB9EED1F0BC01F0FF0102F00702F3
:1022D00032B110F8013B013A83EA010313B1F8D19E
:1022E0000020704701387047002D06BF354603387F
:1022F000073815F0010F07D1013015F4807F02BFB8
:10230000013015F4C03F0130F0BC0138704700BF08
:1023100000000000000000000000000000000000BD
:1023200000000000000000000000000000000000AD
:10233000000000000000000000000000000000009D
:1023400090F800F06DE9024520F007016FF0000CF5
:1023500010F0070491F820F040F049804FF000049D
:102360006FF00700D1E9002391F840F000F1080078
:1023700082FA4CF2A4FA8CF283FA4CF3A2FA8CF3B0
:102380004BBBD1E9022382FA4CF200F10800A4FA17
:102390008CF283FA4CF3A2FA8CF3E3B9D1E904236B
:1023A00082FA4CF200F10800A4FA8CF283FA4CF3A2
:1023B000A2FA8CF37BB9D1E9062301F1200182FA5C
:1023C0004CF200F10800A4FA8CF283FA4CF3A2FA62
:1023D0008CF3002BC6D0002A04BF04301A4612BA70
:1023E000B2FA82F2FDE8024500EBD2007047D1E973
:1023F000002304F00305C4F100004FEAC50514F002
:10240000040F91F840F00CFA05F562EA05021CBFD2
:1024100063EA050362464FF00004A9E700000000EC
:10242000B0B582B000AF9C4BD3E906019B4BD3E91A
:102430000223FEF75DFD0346002B05D1974BD3E940
:1024400002239549C1E90623934B1B69184601F005
:102450006DF90346FB71904BD3F88C31B3F1FF3F1C
:1024600006D08D4BD3F88C3101338B4AC2F88C31B6
:10247000894B93F89031002B37D1874B012283F899
:102480009021854B022283F8912185494FF000026B
:102490004FF00003C1E90A2381494FF000024FF0D9
:1024A0000003C1E910237E494FF000027D4BC1E9D2
:1024B0000C237B494FF000024FF00003C1E90623D3
:1024C00077494FF000024FF00003C1E90223734B3C
:1024D000D3E908014FF00002734BFEF7A1FA024660
:1024E0000B466F49C1E9042377E16B4B93F89131B7
:1024F000032B00F0DB80032B00F31C81012B03D0A6
:10250000022B00F0848015E165494FF000024FF086
:102510000003C1E9082362494FF00002614BC1E9A1
:102520000E235F494FF000025E4BC1E900235A4B76
:10253000D3F88C41594BD3E9062355A1D1E90001C9
:10254000FEF798FB02460B4610461946534BD3E95B
:102550000A23FEF7ADF802460B46104619464F4BCC
:10256000D3E90C23FEF7A4F802460B4643EC172BE5
:10257000B0EE470AF0EE670A05F03AF853EC102B7C
:1025800010461946FEF7E6FC03469C421CD3424B1C
:10259000042283F89121404B0022C3F88C2140494A
:1025A0004FF000024FF00003C1E900233C494FF017
:1025B00000024FF00003C1E90E2339494FF0000239
:1025C000384BC1E90823FAE0334B93F89231FA799A
:1025D0009A4240F0F480304B032283F891212E4B35
:1025E0000022C3F88C212E494FF000022D4BC1E987
:1025F00000232B494FF000022A4BC1E90E23284942
:102600004FF000024FF00003C1E90823D7E024494E
:102610004FF000024FF00003C1E90A2320494FF0B8
:1026200000024FF00003C1E910231D494FF00002E2
:102630001C4BC1E90C231A494FF000024FF0000374
:10264000C1E9062316494FF000024FF00003C1E92B
:102650000223114B012283F891210F4B0022C3F872
:102660008C210F494FF000024FF00003C1E908230D
:102670000B494FF000020B4BC1E90E2308494FF004
:102680000002084BC1E90023A7E000BFAFF30080C0
:1026900000000000004CED40980E002000000020DB
:1026A000500E00200000F03F0000344046494FF03B
:1026B0000002464BC1E9002343494FF00002434B5F
:1026C000C1E90E2340494FF000024FF00003C1E979
:1026D00008233F4BD3F88C413E4B93ED0C7BB0EE7F
:1026E000470AF0EE670A04F083FF53EC102B104604
:1026F0001946FEF72FFC03469C4262D3344B01225D
:1027000083F89121324B0022C3F88C212E494FF0DF
:1027100000024FF00003C1E908232B494FF00002EB
:102720002A4BC1E90E2328494FF00002274BC1E98B
:10273000002346E024494FF000024FF00003C1E9B6
:10274000002321494FF000024FF00003C1E90E239E
:102750001D494FF000021D4BC1E908231C4BD3F863
:102760008C411C4B93ED0A7BB0EE470AF0EE670AF2
:1027700004F03EFF53EC102B10461946FEF7EAFB1F
:1027800003469C4228D3124B032283F89121104B1D
:102790000022C3F88C210C494FF000020B4BC1E919
:1027A000002309494FF00002084BC1E90E230649F6
:1027B0004FF000024FF00003C1E908230CE000BF16
:1027C0000BE000BF09E000BF500E00200000F03F0A
:1027D000980E00200000002000BF974BD3F8FC406B
:1027E000964BD3E9000101231D464FF000024FF044
:1027F0000003FEF77DFB0346002B01D000231D469E
:10280000EBB21946204600F0C9FF8B4BD3F8E840E5
:102810008A4BD3E9020101231D464FF000024FF01D
:102820000003FEF765FB0346002B01D000231D4685
:10283000EBB21946204600F0B1FF7F4BD3F874315C
:102840007E4A92ED047BB0EE470AF0EE670A184626
:1028500000F09EFE784BD3F8D440784BD3E90601C4
:1028600001231D464FF000024FF00003FEF740FB2E
:102870000346002B01D000231D46EBB2194620462B
:1028800000F08CFF6C4BD3F8C0406C4BD3E90801CF
:1028900001231D464FF000024FF00003FEF728FB16
:1028A0000346002B01D000231D46EBB219462046FB
:1028B00000F074FF604BD3F8AC40604BD3E90A01E1
:1028C00001231D464FF000024FF00003FEF710FBFE
:1028D0000346002B01D000231D46EBB219462046CB
:1028E00000F05CFF544BD3F84C41544BD3E90C013E
:1028F00001231D464FF000024FF00003FEF7F8FAE7
:102900000346002B01D000231D46EBB2194620469A
:1029100000F044FF484BD3F83841484BD3E90E014F
:1029200001231D464FF000024FF00003FEF7E0FACE
:102930000346002B01D000231D46EBB2194620466A
:1029400000F02CFF3C4BD3F824413C4BD3E9100161
:1029500001231D464FF000024FF00003FEF7C8FAB6
:102960000346002B01D000231D46EBB2194620463A
:1029700000F014FF304BD3E90E01314BD3E90023B3
:10298000FEF7B6FA0346002B05D12D4BD3E9002301
:102990002949C1E90E23284B1B6B184600F0C6FEDF
:1029A000254BD3E91601264BD3E90423FEF7A0FA01
:1029B0000346002B05D1224BD3E904231E49C1E96C
:1029C00016231D4B1B6D184600F0B0FE1A4BD3F8B2
:1029D00088319FED170B184600F0DAFD164BD3F83F
:1029E00060319FED130B184600F0D2FD124BD3F867
:1029F00010310021184600F0D1FE0F4BD3F898306B
:102A00000021184600F0CAFE0B4B1B6F0021184630
:102A100000F0C4FE084BD3F884300021184600F0C3
:102A2000BDFE00BF0837BD46B0BD00BFAFF300809C
:102A30000000000000000000980E0020500E002052
:102A4000000000200000000080B584B000AFBE4B45
:102A5000012283F89221BC4B01221A70BA4B00224A
:102A60005A60B9494FF00002B84BC1E90623B64B92
:102A700000221A70B64BD3E90223B349C1E90623F9
:102A8000B14BFB60B04B00221A72AF4B01225A606F
:102A90000021002000F0DAFD0246FB681A61AA4B13
:102AA00001221A72A84B012283F8EC20A64B0022C7
:102AB000C3F8F020A44B002283F8EC20A54BBB60A8
:102AC000A14B002283F8F4209F4B0122C3F8F02091
:102AD0000121022000F0BAFD0246BB681A619A4B40
:102AE000012283F8F420984B012283F8D820964BDA
:102AF0000022C3F8DC20944B002283F8D820964BA8
:102B0000BB60914B002283F8E0208F4B0122C3F879
:102B1000DC200121042000F099FD0246BB681A6107
:102B2000894B012283F8E020874B012283F864213E
:102B3000854B0022C3F86821834B002283F864216F
:102B4000864B7B60804B002283F86C217E4B0122F8
:102B5000C3F868219FED781B9FED790B052000F0ED
:102B60005BFC02467B681A61774BD3F874311846D8
:102B700000F004FD744B012283F86C21724B01229A
:102B800083F8C420704B0022C3F8C8206E4B00228B
:102B900083F8C420724BBB606B4B002283F8CC20BF
:102BA000694B0122C3F8C8200121072000F04EFD27
:102BB0000246BB681A61644B012283F8CC20624B49
:102BC000012283F8B020604B0022C3F8B4205E4B92
:102BD000002283F8B020634BBB605B4B002283F87C
:102BE000B820594B0122C3F8B4200121082000F07D
:102BF0002DFD0246BB681A61534B012283F8B820B1
:102C0000514B012283F89C204F4B0022C3F8A02097
:102C10004D4B002283F89C20534BBB604A4B002253
:102C200083F8A420484B0122C3F8A02001210920E9
:102C300000F00CFD0246BB681A61434B012283F889
:102C4000A420414B012283F83C213F4B0022C3F8D2
:102C500040213D4B002283F83C21444BBB603A4B62
:102C6000002283F84421384B0122C3F8402101217E
:102C70000A2000F0EBFC0246BB681A61324B0122CD
:102C800083F84421304B012283F828212E4B002267
:102C9000C3F82C212C4B002283F82821344BBB6035
:102CA000294B002283F83021274B0122C3F82C2125
:102CB00001210B2000F0CAFC0246BB681A61224BBE
:102CC000012283F83021204B012283F814211E4B6E
:102CD0000022C3F818211C4B002283F81421254B35
:102CE000BB60194B002283F81C21174B0122C3F84B
:102CF000182101210C2000F0A9FC0246BB681A61D2
:102D0000114B012283F81C210F4B012283F8202054
:102D10000D4B00225A620C494FF000020B4BC1E9E7
:102D20000E23094B002283F82020094BD3E900230E
:102D3000054921E0AFF30080000000000000594089
:102D40000000000000409F40980E00200000F0BFEF
:102D500000000020840F0020700F0020FC0F0020D6
:102D60005C0F0020480F0020340F0020D40F0020FB
:102D7000C00F0020AC0F0020C1E90E23904BFB6078
:102D8000904B002283F828208E4B01225A620021AA
:102D9000012000F05BFC0246FB681A61894B0122AE
:102DA00083F82820874B012283F84020854B00229E
:102DB0005A6484494FF00002834BC1E91623814BCA
:102DC000002283F84020814BD3E904237D49C1E9E7
:102DD00016237F4B3B607B4B002283F84820794BC6
:102DE00001225A6400212E2000F030FC02463B688C
:102DF0001A61744B012283F84820724B012283F838
:102E00007821704B0022C3F87C216E4B002283F89E
:102E10007821704B7B606B4B002283F88021694BDB
:102E20000122C3F87C219FED621B9FED630B032001
:102E300000F0F2FA02467B681A61624BD3F88831DF
:102E4000184600F09BFB5F4B012283F880215D4B0D
:102E5000012283F850215B4B0022C3F85421594BC7
:102E6000002283F850215C4B7B60564B002283F894
:102E70005821544B0122C3F854219FED4D1B9FED67
:102E80004E0B062000F0C8FA02467B681A614D4BD3
:102E9000D3F86031184600F071FB4A4B012283F8E9
:102EA0005821484B012283F80021464B0022C3F8E9
:102EB0000421444B002283F80021484BBB60414B66
:102EC000002283F808213F4B0122C3F8042101218D
:102ED0000D2000F0BBFB0246BB681A61394B012292
:102EE00083F80821374B012283F88820354B0022D4
:102EF000C3F88C20334B002283F88820384BBB600A
:102F0000304B002283F890202E4B0122C3F88C20F6
:102F100001212A2000F09AFB0246BB681A61294B66
:102F2000012283F89020274B012283F86020254B53
:102F300000225A66234B002283F86020294BBB6095
:102F4000204B002283F868201E4B01225A66012183
:102F50002B2000F07BFB0246BB681A61194B012253
:102F600083F86820174B012283F87420154B002248
:102F70009A67144B002283F874201B4BBB60114BE3
:102F8000002283F87C200F4B01229A6701212C201C
:102F900000F05CFB0246BB681A610A4B012283F811
:102FA0007C2000BF1037BD4680BD00BFAFF300805E
:102FB00000000000000000000000000000A08C40A5
:102FC000B80E0020980E00200000F0BF0000002086
:102FD000D80E002010100020E80F0020980F0020CD
:102FE000200F0020F80E00200C0F002080B500AF4D
:102FF000BD4B1B78002B0FD1BB4B01221A70BA4B73
:103000005B68012B08D1B84B1B7A002B04D0B64B60
:103010001B69184600F001FCB34B93F8EC30002B11
:1030200013D1B14B012283F8EC20AF4BD3F8F03031
:10303000012B0AD1AC4B93F8F430002B05D0AA4BEE
:10304000D3F8FC30184600F0E8FBA74B93F8D830D3
:10305000002B13D1A44B012283F8D820A24BD3F824
:10306000DC30012B0AD1A04B93F8E030002B05D0C7
:103070009D4BD3F8E830184600F0CFFB9A4B93F8FD
:103080006431002B19D1984B012283F86421964BAF
:10309000D3F86831012B10D1934B93F86C31002B8E
:1030A0000BD0914BD3F87431184600F0AFFA8E4B29
:1030B000D3F87431184600F0BFFA8B4B93F8C43044
:1030C000002B13D1884B012283F8C420864BD3F800
:1030D000C830012B0AD1844B93F8CC30002B05D09B
:1030E000814BD3F8D430184600F097FB7E4B93F811
:1030F000B030002B13D17C4B012283F8B0207A4BE7
:10310000D3F8B430012B0AD1774B93F8B830002BA9
:1031100005D0754BD3F8C030184600F07EFB724BDB
:1031200093F89C30002B13D16F4B012283F89C2025
:103130006D4BD3F8A030012B0AD16B4B93F8A43020
:10314000002B05D0684BD3F8AC30184600F065FB77
:10315000654B93F83C31002B13D1634B012283F86C
:103160003C21614BD3F84031012B0AD15E4B93F8DF
:103170004431002B05D05C4BD3F84C31184600F09D
:103180004CFB594B93F82831002B13D1564B01229D
:1031900083F82821544BD3F82C31012B0AD1524B00
:1031A00093F83031002B05D04F4BD3F83831184607
:1031B00000F033FB4C4B93F81431002B13D14A4BE6
:1031C000012283F81421484BD3F81831012B0AD17E
:1031D000454B93F81C31002B05D0434BD3F82431D9
:1031E000184600F01AFB404B93F82030002B11D109
:1031F0003D4B012283F820203B4B5B6A012B09D118
:10320000394B93F82830002B04D0374B1B6B1846F2
:1032100000F003FB344B93F84030002B11D1324BBC
:10322000012283F84020304B5B6C012B09D12E4BDF
:1032300093F84830002B04D02B4B1B6D184600F040
:10324000ECFA294B93F87831002B19D1264B012247
:1032500083F87821244BD3F87C31012B10D1224BF9
:1032600093F88031002B0BD01F4BD3F888311846D0
:1032700000F0CCF91C4BD3F88831184600F0DCF98B
:10328000194B93F85031002B19D1174B012283F8B9
:103290005021154BD3F85431012B10D1124B93F818
:1032A0005831002B0BD0104BD3F86031184600F08A
:1032B000ADF90D4BD3F86031184600F0BDF90A4B5B
:1032C00093F80031002B17D1074B012283F800211E
:1032D000054BD3F80431012B0ED1034B93F8083181
:1032E000002B09D002E000BF980E0020274BD3F836
:1032F0001031184600F091FA244B93F88830002BD7
:1033000013D1224B012283F88820204BD3F88C3034
:10331000012B0AD11D4B93F89030002B05D01B4B8D
:10332000D3F89830184600F078FA184B93F86030CC
:10333000002B11D1154B012283F86020134B5B6EDB
:10334000012B09D1114B93F86830002B04D00F4B9F
:103350001B6F184600F061FA0C4B93F87430002B89
:1033600012D10A4B012283F87420084B9B6F012B6A
:103370000AD1064B93F87C30002B05D0034BD3F8D1
:103380008430184600F049FA00BF80BD980E002036
:1033900080B584B000AFF860B9601346FB71BB68BC
:1033A0001F2B05D90D4B0E4AFF210E4804F0A8F93A
:1033B000FB68BA6853F8223023F0807323F4E0638B
:1033C000FA79120202F4E06243EA0201FB68BA6889
:1033D00043F8221000BF1037BD4680BDF0A20000A8
:1033E00088A30000FCA2000080B483B000AF786026
:1033F0000B46FB707B681B6823F01802FB78DB0030
:1034000003F018031A437B681A6000BF0C37BD46EF
:103410005DF8047B7047000080B58EB000AF786126
:1034200087ED020B87ED001B524A7B695B01134459
:1034300011331B78002B40F08780002387F8283059
:10344000002387F82930002387F82A308023FB6285
:10345000484A7B695B0113441868464A7B695B01F3
:10346000134404331968434A7B695B0113441033E6
:103470001B781A46FFF78CFF3E4A7B695B011344B9
:1034800008331B6807F128021146184602F0FAFFBC
:10349000384A7B695B01134408331B68DBB20022A6
:1034A0000121184603F074F8324A7B695B0113442A
:1034B000113304221A702F4A7B695B01134403F114
:1034C0001801D7E90223C1E9002302233B76002338
:1034D0007B76284A7B695B0113441833D3E90023C8
:1034E00010461946FDF736FD0346FB61D7E900019A
:1034F000FDF730FD03463B620023BB841D4A7B6918
:103500005B01134408331B681B4A52F823303B63AA
:103510000021386BFFF768FF164A7B695B01134493
:1035200008331868134A7B695B0113440C331B682A
:10353000DAB207F11803194603F088F87B695B01DA
:103540000C4A13447B630FE00A4A7B695B01134416
:1035500011331B78042B05D17B695B01054A1344A9
:103560007B6301E000237B637B6B18463837BD46E5
:1035700080BD00BFB801002018A9000080B483B04E
:1035800000AF786000BF0C37BD465DF8047B704724
:1035900080B58AB000AFF86087ED000BFB687B62F6
:1035A0007B6A002B2CD07B6A5B7C042B28D1022306
:1035B0003B7400237B747B6AD3E9062310461946CB
:1035C000FDF7C8FC03467B61D7E90001FDF7C2FCAB
:1035D0000346BB610023BB837B6A9B680A4A52F89F
:1035E00023303B620021386AFFF7FEFE7B6A986851
:1035F0007B6ADB68DAB207F11003194603F026F89C
:1036000000BF2837BD4680BD18A9000080B485B032
:1036100000AF78607B68FB60FB68002B06D0FB681E
:103620005B7C042B02D1FB6800225A7400BF143764
:10363000BD465DF8047B704780B483B000AF78600E
:1036400000BF0C37BD465DF8047B704780B590B075
:1036500000AF78600B46FB70FB78002B27D107F199
:10366000240300221A605A609A60DA601A615A6173
:103670002D4A7B6852F833307B62012387F828306B
:10368000012387F829304FF0FF333B6307F1240310
:10369000184603F0CFF8244A7B68DB00134401226C
:1036A0001A717B68DB00204A1344FB6336E0FB7829
:1036B000012B31D107F10C0300221A605A609A6085
:1036C000DA601A615A61184A7B6852F83330FB603D
:1036D00001233B754FF0FF33BB6107F10C03184624
:1036E00003F01AF9104A7B68DB00134402221A71B6
:1036F0007B68292B0AD97B682C2B07D80A4A7B6860
:1037000052F833300121184603F042F97B68DB00A0
:10371000054A1344FB6301E00023FB63FB6B18467F
:103720004037BD4680BD00BF3C00002080B586B05C
:1037300000AF78607B683B613B69002B0BD03B6935
:103740001B79012B07D13B691B68184603F02EF942
:103750000346FB7501E00023FB753B691B681B0AF0
:10376000DBB2FB603B691B68DBB2BB60FB68022B12
:1037700002D1BB68062B05D0FB68002B09D1BB68C2
:10378000042B06D1FB7D002B0CBF01230023DBB2F1
:10379000FB75FB7D18461837BD4680BD80B586B0E9
:1037A00000AF78600B46FB707B687B617B69002B08
:1037B0002FD07B691B79022B2BD17B691B681B0ADD
:1037C000DBB23B617B691B68DBB2FB603B69012BB1
:1037D00005D1FB68162B08D0FB68152B05D03B697B
:1037E000042B0FD1FB681A2B0CD17B691A68FB786C
:1037F000012B14BF01230023DBB21946104603F04E
:10380000C7F806E07B691B68FA781146184603F092
:10381000BFF800BF1837BD4680BD80B485B000AF8B
:1038200078607B68FB60FB68002B0ED0FB681B791F
:10383000022B03D1FB6800221A7106E0FB681B799A
:10384000012B02D1FB6800221A7100BF1437BD465C
:103850005DF8047B7047000080B400AFFEE700BF56
:1038600080B483B000AF78607B68013B032B0BD83A
:1038700001A252F823F000BF893800008938000007
:10388000893800008938000000BFFEE7704700BF9C
:10389000704700BF0020002104460D46084803F091
:1038A0004DFF03F091FF2046294600F05BFF0548DD
:1038B000002101F013F800F069FF03F04BFF000056
:1038C00075770000DCA3000080B584B000AFF8601D
:1038D000B9601346FB71BB681F2B05D90D4B0E4A0F
:1038E000FF210E4803F00CFFFB68BA6853F8223042
:1038F00023F0807323F4E063FA79120202F4E062A9
:1039000043EA0201FB68BA6843F8221000BF10378F
:10391000BD4680BD34A3000004A4000040A3000005
:1039200080B483B000AF78600B46FB707B68FA7898
:103930001A7000BF0C37BD465DF8047B704700006D
:1039400080B584B000AF3B4600221A605A609A608E
:10395000DA60064B3B6002237B723B46194600202F
:1039600002F0BEFB00BF1037BD4680BD80F0FA02FA
:1039700080B584B000AF074A3B1D07CA83E8070043
:103980003B1D1946002002F0F7FB00BF1037BD4673
:1039900080BD00BF78A3000080B500AF2A21084891
:1039A000FFF7BEFF002212210648FFF78DFFFFF749
:1039B000C7FFFFF7DDFF044802F034FC00BF80BD05
:1039C00000E0074000900440ECA3000080B582B006
:1039D00000AF7860034800F0A0FA00BF0837BD468A
:1039E00080BD00BF303F002098B500AF094B0A4AA8
:1039F0001A600A4B0A4A1C1D13460FCB84E80F00BD
:103A000000F0E1FA0346054A1360064B034A1A60C8
:103A100000BF98BD303F0020383F0020103F0020FD
:103A2000DCA30000283F002080B586B002AF87ED00
:103A3000010A38600223FB60FFF7D6FF164800F04A
:103A40005CFA0346BB60154800F057FA0346BB60BA
:103A5000002300930023FA681149124800F08AFA03
:103A60000346BB600023104A0121104800F0C3FA4E
:103A70000346BB60D7ED017A9FED0D7A67EE877A3A
:103A8000FCEEE77A17EE901A084800F0DBFA00BF68
:103A90001037BD4680BD00BF303F0020283F0020CA
:103AA000B53A0000383F0020CD390000EC3E002040
:103AB00000007A4480B586B000AF7861184B1B686F
:103AC0001B68002B0CBF01230023DBB21A46154BE9
:103AD0001A7011E03B461449184600F031FAFEF71F
:103AE0009FFC0F4B1B681B68002B14BF0123002396
:103AF000DBB21A460D4B1A700A4B1B78DBB2002B57
:103B0000E8D1084B00221A70786900F011F8002003
:103B100000F060FA002318461837BD4680BD00BF8C
:103B200084A3000038000020303F0020243F002004
:103B300080B582B000AF7860074B01221A60074B56
:103B400000221A70FFF752FA054800F0E6F9002348
:103B500018460837BD4680BD4C3F00203800002085
:103B6000283F002080B586B000AF7861396100F051
:103B7000FFFB00F0BCF80A4B1B6800221A60FEF73E
:103B800063FF00209FED070AFFF74EFF3B46064903
:103B9000184600F0D5F9002318461837BD4680BDF9
:103BA00084A300006F12833A283F002080B500AF45
:103BB000002002F0F1FB00BF80BD80B500AF012006
:103BC00002F0EAFB00BF80BD80B500AF022002F02A
:103BD000E3FB00BF80BD80B500AF032002F0DCFB3B
:103BE00000BF80BD80B500AF042002F0D5FB00BF50
:103BF00080BD80B500AF052002F0CEFB00BF80BDC8
:103C000080B500AF062002F0C7FB00BF80BD80B5C5
:103C100000AF072002F0C0FB00BF80BD80B500AF41
:103C2000082002F0B9FB00BF80BD80B500AF0920BD
:103C300002F0B2FB00BF80BD80B500AF0A2002F0E9
:103C4000ABFB00BF80BD80B500AF0B2002F0A4FB32
:103C500000BF80BD80B500AF0C2002F09DFB00BF0F
:103C600080BD80B500AF0D2002F096FB00BF80BD87
:103C700080B500AF0E2002F08FFB00BF80BD80B585
:103C800000AF0F2002F088FB00BF80BD80B500AF01
:103C9000002002F099FB00BF80BD80B500AF00207E
:103CA00003F05CFA00BF80BD80B500AF012003F0D7
:103CB00055FA00BF80BD80B500AF022003F04EFA78
:103CC00000BF80BD80B500AF032003F047FA00BFFE
:103CD00080BD80B500AF042003F040FA00BF80BD76
:103CE00080B500AF052003F039FA00BF80BD80B574
:103CF00082B000AF02F030F90023FB7106E0FB79DF
:103D0000184602F007FBFB790133FB71FB79042BAA
:103D1000F5D9FFF741FE00BF0837BD4680BD80B42E
:103D200000AFFEE780B400AFFEE780B400AFFEE76F
:103D300080B400AFFEE780B400AFFEE780B400AF10
:103D4000FEE780B400AFFEE780B400AFFEE780B4CA
:103D500000AFFEE780B400AFFEE780B400AFFEE73F
:103D600080B400AFFEE780B400AFFEE780B400AFE0
:103D7000FEE780B400AFFEE780B400AFFEE780B49A
:103D800000AFFEE780B400AFFEE780B400AFFEE70F
:103D900080B400AFFEE780B400AFFEE780B400AFB0
:103DA000FEE780B400AFFEE780B400AFFEE780B46A
:103DB00000AFFEE780B400AFFEE780B400AFFEE7DF
:103DC00080B400AFFEE780B400AFFEE780B400AF80
:103DD000FEE780B400AFFEE780B400AFFEE780B43A
:103DE00000AFFEE780B400AFFEE780B400AFFEE7AF
:103DF00080B400AFFEE780B400AFFEE780B400AF50
:103E0000FEE780B400AFFEE780B400AFFEE780B409
:103E100000AFFEE780B400AFFEE780B400AFFEE77E
:103E200080B400AFFEE780B400AFFEE780B400AF1F
:103E3000FEE780B400AFFEE780B400AFFEE780B4D9
:103E400000AFFEE780B400AFFEE780B400AFFEE74E
:103E500080B400AFFEE780B400AFFEE780B400AFEF
:103E6000FEE780B400AFFEE780B400AFFEE780B4A9
:103E700000AFFEE780B400AFFEE780B400AFFEE71E
:103E800080B400AFFEE784B080B582B000AF07F128
:103E9000100C8CE80F003B69796A184600F090FF1F
:103EA00003467B607B6818460837BD46BDE8804006
:103EB00004B0704784B080B500AF07F1080C8CE8FF
:103EC0000F00BB68F969184600F09AFF03461846D0
:103ED000BD46BDE8804004B0704780B582B000AFF9
:103EE000786039607B684FF0FF323968184600F01F
:103EF00095FF78680837BD4680BD80B485B000AFB7
:103F000078607B6801225A600123FB60FB681846D9
:103F10001437BD465DF8047B704780B584B002AFAE
:103F200078607B681B687A68526801921A6900920F
:103F30000FCBFFF7A8FF034618460837BD4680BDE4
:103F400080B584B002AF786039603B681B683A681E
:103F5000526801921A6900920FCBFFF7ABFF3B68E2
:103F60005A687B6811461846FFF7B7FF786808372C
:103F7000BD4680BD80B586B000AFF860B9607A609C
:103F80003B60FB68BA685A60FB687A689A60FB68B5
:103F90000122DA603A68FB681A61FB680433396A07
:103FA000184600F09BFC0246FB681A60FB681B6821
:103FB000002B14BF01230023DBB27B617B69184611
:103FC0001837BD4680BD80B500AF00F0D9FC034670
:103FD000184680BD80B584B000AF786000F0D0FC9A
:103FE0000346FB60F86800F0D7FC0346BB6000BFE7
:103FF0001037BD4680BD80B586B000AFF8607A60EE
:104000003B600B46FB72FB6803F10C02FB689A6095
:10401000FB687A685A60FB680433F97A3A68184694
:1040200000F0C4FD0246FB681A60FB681B68002BA9
:1040300014BF01230023DBB27B617B69184618376C
:10404000BD4680BD80B584B000AF786039607B68C4
:104050001B683968184600F0DDFD0346FB60FB680D
:1040600018461037BD4680BD80B584B000AF78607B
:10407000114B1B68002B02D10F4B104A1A600E4BDC
:104080001B68FB600C4B1A687B6813440C4A934214
:1040900007D903F059FB03460C221A604FF0FF3397
:1040A00006E0054B1A687B681344034A1360FB68FB
:1040B00018461037BD4680BD503F00200000FF1F4E
:1040C0000000002080B489B000AF294BFB60294A72
:1040D000294B9A4216D00023FB610AE0264AFB696D
:1040E00052F823202349FB6941F82320FB6901335F
:1040F000FB61FB689B08FA699A42EFD31F4B1D4A8C
:104100009A6002E01D4B1C4A9A601D4BBB611D4B1F
:104110007B611D4BBB60BA687B69D31AFB6107E00A
:104120007A69531C7B61BB69591CB96112781A709A
:10413000FB695A1EFA61002BF2D1144B3B61144B00
:104140007B607A683B69D31AFB6104E03B695A1CC7
:104150003A6100221A70FB695A1EFA61002BF5D1F0
:1041600000BF00BF2437BD465DF8047B704700BF29
:1041700000000000000000000000000000ED00E072
:10418000000000208CB20000BCC00000300E0020F7
:10419000C840002080B400AF6B4BD3F888306A4A27
:1041A00043F47003C2F88830684B4CF22052DA8135
:1041B000664B4DF62812DA81644B4FF4E9721A808F
:1041C000634B1B78DBB203F00103002B0FD0614B74
:1041D0009B78DBB203F00803002B2ED05D4B9B785D
:1041E000DBB25C4A43F00803DBB2937025E05A4B24
:1041F00003F581531C331B68574943F0005201F506
:1042000081531C331A60554B1B6903F48073002BD8
:1042100013D1524B1B6923F47C53504A43F440732F
:1042200013614E4B1B694D4A43F4807313614B4B32
:104230001B694A4A23F400731361494B2A221A70FE
:10424000454B03F5825304334FF08A721A60424B98
:104250001B6823F44023404A43F4002313603E4B81
:1042600003F5805304331B6823F440333A4943F485
:10427000803201F5805304331A60374B03F58153C4
:1042800018331B68344943F4007201F58153183325
:104290001A60344B9B6C334A23F0807323F4E06341
:1042A0009364314B00221A722F4B5B78DBB223F000
:1042B0006003DBB22C4A43F02003DBB253702B4B7C
:1042C00080221A70284B00221A73274BBA221A70C8
:1042D00000BF254B9B79DBB203F01003002BF8D114
:1042E000214BDB78DBB2204A03F01F03DBB2D37033
:1042F0001D4B13221A711C4B18225A711A4B5B79F1
:10430000DBB2194A43F04003DBB2537100BF164BD6
:104310009B79DBB203F04003002BF8D0124B1B78E3
:10432000DBB2114A03F03F03DBB2137000BF0E4B48
:104330009B79DBB203F00C030C2BF8D100BF00BF5C
:10434000BD465DF8047B704700ED00E000200540AD
:1043500000F0074000D007400070044000D0034048
:1043600000E0074000900440004006400050064036
:1043700080B483B000AF9C4B1B78DBB203F0C0036A
:10438000002B40F0DE80984B5B79DBB203F04003FA
:10439000002B40F0B980944B1B78DBB203F0040390
:1043A000002B4ED1904B1B7BDBB203F00303002BA1
:1043B00002D0012B03D006E08C4B7B6006E04FF46B
:1043C00000437B6002E08A4B7B6000BF864B5B78DA
:1043D000DBB203F03003002B23D0834B1B7BDBB21B
:1043E00003F00303012B1CD07F4B1B78DBB203F0DF
:1043F0003803302B05D0382B07D14FF4C0637B80B6
:104400000EE04FF4A0637B800AE0774B1B78DBB2B1
:10441000DB0803F00703202202FA03F37B8000BFCE
:1044200009E0714B1B78DBB2DB0803F007030122C4
:1044300002FA03F37B807B887A68B2FBF3F37B603C
:1044400002E04FF400437B60674BDB78DBB203F0A4
:10445000E003E02B51D0E02B00F2B080C02B45D020
:10446000C02B00F2AB80A02B39D0A02B00F2A6808D
:10447000802B2DD0802B00F2A180602B21D0602BCF
:1044800000F29C80402B15D0402B00F29780002B2F
:1044900002D0202B07D091E07A6813469B0013448A
:1044A000DB017B608BE07A6813469B0013441B02A0
:1044B0007B6084E07A6813461B019B1ADB017B60FA
:1044C0007DE07A6813469B0013445B027B6076E0D4
:1044D0007B684FF4377202FB03F37B606FE07B680D
:1044E0004FF4B76202FB03F37B6068E07B6840F641
:1044F000950202FB03F37B6061E07B6840F671325A
:1045000002FB03F37B605AE0374B1B79DBB29BB2B3
:1045100003F01F039BB201337B807B88334AB2FBDD
:10452000F3F37B60304B5B79DBB29BB203F01F038C
:104530009BB218337B807A887B6802FB03F37B6035
:104540003DE0294B1B78DBB203F0C003402B1AD1AE
:10455000254B5B78DBB203F00103002B03D14FF452
:1045600000437B602BE0204B1B7ADBB25B0803F03F
:104570000703012202FA03F37B807B881D4AB2FB0A
:10458000F3F37B601BE0184B1B78DBB203F0C00336
:10459000802B23D1144B1B7BDBB203F00303002BD6
:1045A00002D0012B03D006E0104B7B6007E04FF4F4
:1045B00000437B6003E00E4B7B6000E000BF0E4BCE
:1045C00003F5825304331B681B0F03F00F03013301
:1045D0007A68B2FBF3F3094A136000E000BF0C37BE
:1045E000BD465DF8047B70470040064080F0FA024B
:1045F000006CDC0200093D000070044078040020DB
:1046000000B5DFF80CC000DFDFF808C000DFFEE710
:104610007D480000954800002DE9F041344C237896
:1046200053B1344B1B68FF229A70334A0020012398
:1046300010702370BDE8F081304B3148196800F0EC
:104640000BFD00284CD101F079FB2A4B21781B6827
:10465000FF229A700029E8D12A4A1368002B44D01F
:10466000556845B12A78002A38D1191D890089B2C8
:10467000284600F0B5FD244B244A1E68156096B309
:104680005D68EA1C062A2ED8DF688FB9291D3046DE
:104690003B463A4601F010FA054620B31C4B1D4A32
:1046A000681E53F82050AB6A5A631B4B1D60BCE771
:1046B0003946134800F0DEFC8046A0B1291D41EACE
:1046C000072130460023424601F0F6F9054600284E
:1046D000E4D141460A4800F0F1FCE6E70D46CAE79E
:1046E0008520BDE8F0810025DFE71D46C3E700BF58
:1046F000204000206440002021400020B8A300009A
:10470000F0320020D0A30000C0A30000E43E00204F
:10471000B43E002001460000C03E002038B50F4CDA
:10472000207808B1002038BD0D4D2B6893F8241077
:1047300001F072F92B68DA78FF2A03D19A6A2032E5
:1047400082F309886A682AB101F066FB01232370AD
:10475000002038BDC5E90023F6E700BF2140002056
:104760006440002010B5EFF305845CB9EFF31484C6
:10477000E40703D5DFF810C000DF10BDBDE810402E
:10478000FFF74ABF822010BD1946000010B588B05F
:10479000EFF305841CBBEFF3148404F00304022C34
:1047A00024D0032C14D0012C16D008AC84F3098833
:1047B000114C2478E40715D4032484F31488BFF340
:1047C0004F8FBFF36F8FDFF834C000DF08B010BD2C
:1047D000094C2478E407F6D5FF2008B010BD8220EC
:1047E00008B010BD022484F31488E8E7024C247852
:1047F000E407E8D4E0E700BFA8A300001D470000DD
:1048000098B3F8B5066876B34768FB1C062B2AD820
:10481000C26804460D46BAB11146154800F02AFC9C
:10482000064600B36268E1682068043242EA01216A
:104830002B46324601F040F9044660B931460C4837
:1048400000F03CFC2046F8BD0B463046391D01F017
:1048500033F9044638B1601E064B074A53F820006E
:10486000836A5A63F8BD0020F8BD0020704700BF7E
:10487000F0320020B43E00200146000008B501F0EF
:10488000C3F818B10138024B53F8200008BD00BF2F
:10489000B43E0020D0B1820718D138B50478BCB935
:1048A000C28C0346C0785AB1DD6A01F069F9FF286D
:1048B00010D04DB12946084800F000FC204638BD14
:1048C00001F05EF9FF2805D0002038BD8020704738
:1048D000802038BD812038BDF0320020F8B5EFF3DC
:1048E00005848CB9EFF31484E40702D41F4C2478B8
:1048F00064B1DFF888C000DFF8BD0B463046391DD3
:1049000001F0DAF8044640BB0020F8BD0028FBD0D7
:104910000668002EF8D04768FB1C062BF4D8C26846
:104920000D460446002AE8D01146114800F0A2FBCB
:1049300006460028E8D06268E1682068043242EA4E
:1049400001212B46324601F0B7F8044628B931461A
:10495000074800F0B3FB2046F8BD601E054B064A31
:1049600053F82000836A5A63F8BD00BF214000203D
:10497000F0320020B43E0020014600000148000053
:1049800010B5EFF305841CB9DFF808C000DF10BDD7
:10499000002010BD7D48000010B5EFF305841CB960
:1049A000DFF808C000DF10BD822010BD9548000070
:1049B000A0B103689BB143688BB101290ED830B414
:1049C0000A4C24686CB11C795CB9012559711D71C0
:1049D0001C60C3E9042030BC184670470023184609
:1049E00070470023184630BC704700BFC03E00200F
:1049F000820727D130B3002951D0F8B5314B1A685E
:104A0000002312F1FF3643F1FF3704464FF47A706A
:104A1000E0FB016730463946FCF7BCFA2379012BED
:104A200012D0022B0CD1284D2A684AB1944238D0BA
:104A3000114602E09C4228D019460B68002BF9D1A0
:104A40008120F8BD802070471F4DE06002232A6856
:104A50002371002A2AD09668B04206D22CE09D68C5
:104A60008D420BD808462E461A461368811B002B30
:104A7000F5D12360A16014600020F8BDA1609968A1
:104A80002360081A06449E60F5E723680B602368DC
:104A9000002BE0D09968A66831449960D9E7862058
:104AA000704723682B600BB11A46F3E70023A06020
:104AB00023602C600020F8BDA06093682260181A63
:104AC0009060F6E7ACA3000024400020830704D1E7
:104AD00030B1D0E9041318687047002001467047D0
:104AE000014670472DE9F8432E4F3C68002C37D023
:104AF000A368013BA360002B32D1DFF8AC9026689D
:104B0000D9F800503E6025B195F80080B8F1010F4A
:104B100017D00420FEF7A4FEA2609A682360551BFC
:104B200065449D600460DEB1B368CBB9D9F800502C
:104B300033683B60002DECD02A78012AE9D1344655
:104B40001E46284600F0ACFB0028E2D0284621464D
:104B500000F0AAFB6379012B04D084F80480E2E71B
:104B6000BDE8F8833868E56890B1D0F808C06545BD
:104B700006D211E099689142CED815468C46184667
:104B80000368A5EB0C02002BF4D12360A260C9E7F7
:104B90002060A5603C60C6E7A560836820605D1B5F
:104BA0008560F7E724400020E43E002030B5EFF3B5
:104BB00005840CBBEFF31484E40702D4124C247870
:104BC0002CB1DFF84CC000DF0346184630BDC0B141
:104BD0000368002BF9D04368002BF6D001290ED8CA
:104BE0000A4D2D6845B11D794DB901241D605971DB
:104BF000C3E904201C71E8E70023184630BD2346B2
:104C0000E3E70346E1E700BF21400020C03E00206B
:104C1000B149000010B5EFF305841CB9DFF808C0F6
:104C200000DF10BD822010BDF149000008B50B4D1A
:104C3000EFF305804FF0FF310028F9D12868DFF845
:104C400020C000DF1028F3D10846DFF818C000DFCD
:104C500004460028ECD00846A047E9E7E43E0020DF
:104C6000494E0000CD4A000010B570B183070CD149
:104C7000037853B90B0C1B043BB9034688B21C8B59
:104C8000D97800F029FD204610BD4FF000442046A1
:104C900010BD00BF10B570B183070CD1037853B9B4
:104CA0000B0C1B043BB9034688B21C8BD97800F06F
:104CB0003FFD204610BD4FF00044204610BD00BF10
:104CC0002DE9F0414FEA10484FEA0848B8F1000FCB
:104CD00048D10D46044640B380B291B14A1C5DD024
:104CE000344B994263D8344B1A684FF6FE714FF437
:104CF0007A73561E03FB0563B3FBF2F38B4200D8B5
:104D000099B2012200F0C6FC022844D0002D14BF45
:104D100040240024002001460E460F46454620460A
:104D2000294632463B46BDE8F08159B34B1C38D08A
:104D3000204B994238D8204B1A684FF6FE714FF439
:104D40007A73501E03FB0505B5FBF2F58D4200D8C2
:104D5000A9B200224FF6FF7000F09CFC02280BD095
:104D60004024D7E7002586242E462F462046294694
:104D700032463B46BDE8F081104B1B680824B3F86F
:104D80001A80C7E742464FF6FF7000F083FC022806
:104D9000F2D04446BEE7A0460824BBE74FF6FF71B9
:104DA000AFE74FF6FF71D4E74FF6FE71D1E74FF64C
:104DB000FE71A6E700093D00ACA30000644000209E
:104DC00070B5EFF305852DB9DFF830C000DF04467C
:104DD000204670BD044668B183070BD103784BB9F8
:104DE0000B0C1B0433B988B2E178248B00F0ACFCC7
:104DF000204670BD4FF00044204670BD694C000055
:104E000010B5EFF305841CB9DFF80CC000DF10BD4E
:104E10004FF0004010BD0000954C000070B50446F6
:104E2000EFF305854DB908461146DFF818C000DFDD
:104E3000C4E90001A260204670BD822303602046C1
:104E400070BD0000C14C0000F0B5034685B00028DD
:104E50003AD00278012A2AD10C4600293ED04A1CB9
:104E600049D0264A91422CD8254A11684FF47A75C8
:104E7000481E4FF6FE7205FB0404B4FBF1F49442A5
:104E800000D8A2B2184602A900F0B6F9012830D025
:104E90000020024603461020029904460D4616469D
:104EA0001F462046294632463B4605B0F0BD002548
:104EB00080242E462F462046294632463B4605B0E2
:104EC000F0BD4FF6FE72DDE7054606460746802434
:104ED0002046294632463B4605B0F0BD0A4602A9A7
:104EE00000F08AF90128D3D100200246034620466B
:104EF000D2E74024F8E74FF6FF72C3E700093D0010
:104F0000ACA30000274B2DE9F047C58CD3F80090E7
:104F1000C66AAD0808BFC9F38D0506EB85046307B3
:104F200048BF043C8046A4F140074FF080738A4696
:104F300044F8081C44F8043C38463822002102F0AA
:104F400021FFD8F81C3044F8203C19F0805F3B4624
:104F5000C8F82870C8F830A01FD0112D1DD9103DF9
:104F60006D08012D12D06FF03702A2EBC502144478
:104F70004FF0CC3243F8042C43F8082DA342F9D16A
:104F8000C5EB457507EBC50303F108073B1F9E42C0
:104F90003CBF4FF0CC3347F8043C034B3360BDE8D3
:104FA000F08700BFA0A30000A52E5AE290F82520AC
:104FB000836A12B1603319607047203319607047FB
:104FC00010B490F82540836A2CB16033C3E9001215
:104FD0005DF8044B70472033C3E900125DF8044BC1
:104FE000704700BF084B1B68DA0107D5074B1B68E9
:104FF000DB0703D5064B1B68002B00DB7047054B16
:1050000001221A70704700BFFCED00E0800E00E046
:10501000000E00E02840002010B4094C2368002B4B
:10502000FCD0036B064A23601368002BFCD0C378C6
:105030005DF8044B43EA01239BB21380704700BF25
:105040007C0000E0034A1368002BFCD0C0B2107053
:10505000704700BF7C0000E0034648B1072907D92C
:1050600004390022084418605A5010465A607047AC
:1050700001207047F0B1F1B10B3170B4036821F039
:10508000030603E01968184649B10B464468021943
:105090009D1AAE42F6D82CB9466000F108010846C8
:1050A00070BC704702F10801C2E90036026070BCB2
:1050B0000846704701460846704700BFC0B1B9B105
:1050C000083988421DD010B404689CB1A1421CD09C
:1050D000236823B90EE01A681C465AB11346994258
:1050E000F9D15CB11B68236000205DF8044B704768
:1050F0000120704701205DF8044B70470020586084
:10510000F3E7034600205860704723460446E9E76A
:10511000002A30B41FDB033222F003020C24BAB1A0
:1051200013198B4214D8044401448D1AA3189D42CC
:10513000C0E90041826015D3002100E003469818C1
:10514000854263501144F9D20020186030BC70478A
:10515000012030BC704722F00042073222F00702E3
:105160001024DCE72346EFE7EFF3108372B6026802
:1051700003F001030AB11168016003B962B6104679
:10518000704700BF81420DD343688B420AD9EFF3C9
:10519000108372B602680A60016013F0010003D147
:1051A00062B670470120704700207047426882B1A4
:1051B00010B500F01DF9044600F032FA01216170CB
:1051C0002046FFF7F3FE21460448BDE8104000F0FA
:1051D000E7B8428801324280704700BF304000206B
:1051E0001039002389080122C18102808370C0E93F
:1051F00001338381704700BF38B5838904467BB98A
:1052000015465AB1254A4368116823B300F0C8F81F
:105210002846082100F0D0FB012038BD012038BD10
:105220004389C289181D01339BB254F820000860DD
:105230009A42638104BF00236381636813B163787A
:10524000022B0ED0EFF3108372B6A389013BA3812A
:1052500062B6002038BD01224160C1E901304270D0
:10526000D6E7204600F0C4F800210546FFF79EFE71
:105270002389E289E869191D01339BB29A4244F8F7
:105280002100238104BF00232381284600F0C8F9B0
:10529000284600F055FB002038BD00BF64400020C8
:1052A000C2898089101A704708B500F0D1F9BDE8AD
:1052B000084000F083BA00BF426870B503464AB1A7
:1052C0004578022D0E4604463DD0032D1AD0012DFF
:1052D00030D070BD8489C08984425AD21889043084
:1052E00043F82010EFF3108172B69989013199814A
:1052F00062B61989D889013189B288421981E8D109
:105300001A8170BD0846FFF72FFF05460028E0D040
:10531000204600F06DF829460446FFF747FE0123BA
:105320006370204600F07CF921461C48BDE87040BF
:1053300000F036B800F05CF8044632461021FFF762
:105340003FFE6570EDE700F053F800210546FFF7DA
:105350002DFE2389EA69043344F82320EFF31083F8
:1053600072B6A3890133A38162B62389E28901332E
:105370009BB29A42238104BF002323810123284644
:105380006B7000F04DF929460448BDE8704000F00C
:1053900007B80320BDE87040FEF762BA3040002035
:1053A00030B4057842688C78013DEDB2EAB193786B
:1053B000A34204D20FE0987884420ED81A4653686C
:1053C000002BF8D10023022D4B60516000D9002240
:1053D0008A6030BC704713460246022D4B60516014
:1053E000F5D8996030BC8A6070470246EAE700BF92
:1053F00002784368013A59684160022A07D811B11E
:10540000002288605A6000229A6018467047002285
:105410005A601846704700BF034B5A68426000222A
:1054200058608260704700BF30400020816830B40F
:1054300000292FD00B780A461BB992681378002BED
:10544000FBD044684C604568546805B1A960013BD5
:105450008578D9B2002C3AD0A378AB4204D20FE0C1
:105460009A7895420ED81C466368002BF8D1002329
:105470000229436060600AD90023836030BC704712
:1054800023461446022943606060F5D89860846022
:1054900030BC70474378012BF0D10E494C68A042D4
:1054A0000DD04CB1626890420FD02AB15368984237
:1054B00006D01A46002AF9D10B78064AC7E70A46F1
:1054C000456855600B78034AC1E72246F8E7144661
:1054D000CDE700BF3040002070B4164EF36823B310
:1054E000B58AA9422A4602D821E0A4B123469D8A62
:1054F000DC682A449142F8D895B2C460D860C2688A
:10550000036102B110616A1A82829A8A551B29448A
:10551000998270BC7047891A89B20022C26070BC3F
:10552000D86003619982828270473346F5E71C4652
:105530003346E2E7484000202DE9F0432A4DEB686E
:10554000002B4AD0A88A013880B2A882002844D112
:10555000264F274A3E78B2F800E0013EF6B2B84640
:105560004FF0010C9A6832B15968516011B1596815
:105570008A60586098607A689C78002A2FD0917869
:10558000A14205D21EE091F802904C451CD80A4673
:1055900051680029F7D1022E5860536000D90022CB
:1055A0005C789A60042C998A02D1DA8A72449A82D1
:1055B000DA6883F801C06AB11561C3E9030081B9F3
:1055C0001346CFE711464246022E59605360E6D893
:1055D0008B60E5E7A982EA601A61BDE8F083424684
:1055E000D9E7A982EA60F8E748400020304000206F
:1055F0002C40002083682BB142685A60426842B157
:1056000093607047054B5A68904203D01346002AB6
:10561000F9D1704742685A60704700BF304000209F
:1056200003699BB1C268DA6062B1998A10B4848A56
:1056300021449982002413610023C46003615DF852
:10564000044B70479A82002303617047704700BF84
:1056500030B40F4BDC78EFF3108272B69A78944234
:1056600008D9551C1A789D70551CAC4214BFEDB278
:1056700000251D7062B6DC78944205D903EBC203A5
:10568000C3E9010130BC7047022030BCFEF7E8B826
:10569000303E002038B50F4B1C68238B00EA030511
:1056A00052B1A8420BD006250A466083294610460F
:1056B00000F082F9012038BD35B90525F4E723EA69
:1056C00000002083022038BD23EA00002083658388
:1056D000022038BD644000200139144B10B553F846
:1056E000214044B1218B6378628B0843062B2083D1
:1056F00018D0052B00D010BD10EA0203FBD0638345
:1057000020EA020020832046FFF78AFF012320467B
:105710006370628B0821FFF753FC2046BDE8104000
:1057200000F00EB932EA0003EAD010BDB43E00200A
:105730000139044B53F821301BB11A8B22EA0002C5
:105740001A837047B43E002008B50139064B53F860
:1057500021303BB101461846FFF77AFFBDE808400B
:1057600000F02CB808BD00BFB43E002038B5038B54
:105770004278458B1943062A018319D0052A00D0A7
:1057800038BD11EA0503FBD0438321EA0501044635
:105790000183FFF745FF012320466370628B0821D8
:1057A000FFF70EFC21460448BDE83840FFF7F8BD7E
:1057B00035EA0103E9D038BD30400020054B1A78A6
:1057C00022B9054B4FF080521A60704701229A703F
:1057D000704700BF4C0E002004ED00E038B5234BAD
:1057E000234C186801234370FFF716FE6378A278F4
:1057F0001D46C2B104EBC5014B681A78184662B366
:10580000012A2ED0FFF7D2FCE3780135AB4212D04B
:10581000EFF3108372B6A378013BA37062B6A3784E
:10582000002BE7D1EBB213486370FFF7E1FDBDE851
:10583000384000F073B8EFF3108372B6A378013BE1
:10584000A37062B6A578002DECD0002504EBC5014D
:105850004B681A781846002AD2D10989FFF786FFCB
:10586000D2E78968FFF728FDCEE700BF644000203B
:10587000303E0020304000200A4A0B490B480C4BB8
:1058800010B414680C600B4A0024072104601960EE
:1058900013685DF8044B43F07F434FF0FF30136013
:1058A000704700BFA4A3000014E000E018E000E08F
:1058B00010E000E020ED00E0704700BF08B50B4BA2
:1058C000186801234370FFF7A7FDFDF7E1FF084AC1
:1058D000136801331360FFF72FFEFFF703F9054844
:1058E000FFF786FDBDE8084000F018B864400020CE
:1058F0002C40002030400020064B1B68D3E90A32C0
:105900009A4203D81268044B9A4202D00120FDF754
:10591000A7BF704764400020A52E5AE2064A074BF5
:1059200012785860022141702AB11B68984202D057
:10593000C078FFF787BB70472840002064400020F4
:1059400038B500B3194D82780446286883789A42A6
:1059500011D9FFF761FD164A2B6812780120022148
:1059600058706C606170DAB1A34219D0E078BDE87C
:105970003840FFF767BB0123637021460D48BDE83F
:105980003840FFF70DBD0B48FFF732FD084A074BC3
:10599000127858600221417012B11B68984200D100
:1059A00038BDC078BDE83840FFF74CBB64400020EC
:1059B000284000203040002000B9704738B54FF62D
:1059C000FF720E4D90420C462B6804D001461846DB
:1059D000FFF782FD2B685C700948FFF709FD094B52
:1059E00068601B78022242703BB12B68984204D059
:1059F000C078BDE83840FFF725BB38BD64400020C3
:105A00003040002028400020024B186800B1C078C8
:105A1000704700BF6440002038B5C0B1214B1B88DF
:105A2000834237D30138204B53F82040002C31D02B
:105A30001E4DA1702B6884F824109C420CD0204687
:105A4000FFF7F4FC6378012B26D0002038BD174DFA
:105A50002B68997083F82410154C626892788A42FA
:105A6000F3D919462046FFF79BFC2B6801225A7098
:105A70002046FFF7BDFC0F4B68601B780222427086
:105A8000002BE2D02B689842DFD0C078FFF7DAFA1B
:105A9000002038BDFF2038BD0548FFF7A9FCFFF7FF
:105AA0004FFFD2E79CA30000B43E002064400020DA
:105AB00030400020284000202DE9F04111F0FF0F78
:105AC0000D460646294890461F4608BF0135FFF798
:105AD0004BFB044660B30023C5F30F214FF48072E3
:105AE000EDB2C0F82C80C761C184857080F8245065
:105AF00002800362C0E90133C0E90333C0E9053322
:105B000080F82530C1B120463146FFF7FBF9184B2C
:105B1000188868B1174E33682BB33246012303E06F
:105B200052F8041F69B12B46984203F10105F7D1E1
:105B300000252846BDE8F0810F48FFF715FBE0621D
:105B4000E1E7E9B20D4A46F823401378E1702BB93A
:105B50002046FFF7F5FE2846BDE8F08101212046EA
:105B6000FFF75AFAF4E701210D46EBE73410002065
:105B70009CA30000B43E0020E0100020284000203C
:105B80002DE9F84F664E346800285ED0E3788342F2
:105B90005BD0644B1B888342C0F0BF80471EDFF898
:105BA00098B15BF82790B9F1000F00F0B680484635
:105BB000FFF720FD4846FFF733FDD9F8204044B3F6
:105BC0006368DFF86CA14FF001082046DBB1FFF7F6
:105BD0000FFC00210546FFF7E9F92846FFF720FDF5
:105BE00085F8018029465046FFF7DAFBE2682B6A08
:105BF000E360A560A4F802802C6252B114462046EE
:105C00006368002BE3D1E2686380C4E90233002AB1
:105C1000F4D1454DD9F82C10444800244BF82740C6
:105C2000FFF7B0FA2B78C9F82C40002B70D1404C0C
:105C300040484946FFF7A6FA636831689A788B783E
:105C40009A425ED80020BDE8F88F00236370FAF70F
:105C500062FCA062FFF750FE33681C6A34B36368CD
:105C6000DFF8CC8001272046CBB1FFF7C1FB002134
:105C70000546FFF79BF92846FFF7D2FC6F702946CF
:105C80004046FFF78DFBE2682B6AE360A560678002
:105C90002C6252B1144620466368002BE5D1E268BD
:105CA0006380C4E90233002AF4D13368DA78D96A10
:105CB00021481D4D531E002440F823401B48FFF788
:105CC00061FA33682A78DC62AAB91A481946FFF7E4
:105CD00059FA002416483460FFF78AFB2B7870606D
:105CE00002224270002BADD033689842AAD0C0780F
:105CF000FFF7A8F9A6E718462146FFF78DF93368A4
:105D0000E3E7012320464B70FFF74AFB2046E3E719
:105D100021464846FFF780F989E7FF20BDE8F88F64
:105D2000644000209CA3000028400020E0100020D8
