:1000000000000020FD0400000F2400001524000063
:100010001B24000021240000272400000000000011
:100020000000000000000000000000006D0500005E
:100030002D240000000000001306000073060000DD
:100040009D220000AB220000B9220000C722000060
:10005000D5220000E3220000F1220000FF22000070
:100060000D2300001B23000029230000372300007C
:100070004523000053230000612300006F2300008C
:100080007D23000033240000392400003F240000B9
:10009000452400004B240000512400005724000098
:1000A0005D24000063240000692400006F24000028
:1000B000752400007B240000812400008B230000B5
:1000C00087240000992300008D240000A72300004E
:1000D00093240000B5230000992400009F24000011
:1000E000A5240000AB240000B1240000B7240000C8
:1000F000BD240000C3240000C9240000CF24000058
:100100000D0500000D0500000D0500000D050000A7
:10011000D5240000DB240000E1240000E7240000D7
:10012000ED240000F3240000F9240000FF24000067
:10013000052500000B2500001125000017250000F3
:100140001D25000023250000C323000029250000F1
:10015000D12300002F250000352500003B2500009D
:1001600041250000472500004D25000053250000D3
:10017000592500005F250000652500006B25000063
:10018000712500000D0500000D0500000D050000A3
:100190000D0500000D0500000D0500000D05000017
:1001A0000D0500000D0500000D0500000D05000007
:1001B0000D0500000D0500000D0500000D050000F7
:1001C0000D0500000D0500000D0500000D050000E7
:1003F0000D0500000D0500000D050000FFFFFFFFCB
:10040000FFFFFFFFFFFFFFFFFFFFFFFFFEFFFFFFFD
:1004400010B5054C237833B9044B13B10448AFF30E
:1004500000800123237010BD380B00200000000035
:100460007088000008B5034B1BB103490348AFF384
:10047000008008BD000000003C0B002070880000D8
:10048000A3F5803A704700BF174B002B08BF134BF2
:100490009D46FFF7F5FF00218B460F461348144A8F
:1004A000121A05F0D1FB0E4B002B00D098470D4BD4
:1004B000002B00D098470020002104000D000D48BB
:1004C000002802D00C4805F09BF805F0DFF820006A
:1004D000290001F0BFFE05F09FF800BF00000800F2
:1004E00000000000851F000000000020380B0020E5
:1004F000243C0020015600003956000072B602F07C
:10050000C1F902F057F962B6FFF7BEFFFFF7FEBF71
:1005100080F309887047EFF309807047684680F3DD
:1005200009885A480078C00714BF0220032080F3CE
:1005300014887047DFF858C1EFF305831B0618BF16
:100540006047EFF31483DB0708BF604700DF7047A5
:10055000DFF840C1EFF305831B0618BF6047EFF3D8
:100560001483DB0708BF604700DF7047EFF30980A3
:10057000816911F8021CE1BB90E80F1010B5E0474B
:10058000BDE81040EFF3098C8CE80700424B93E87C
:100590000600914208BF704741B91EF0100F16D1F6
:1005A0003E49086820F00100086010E01EF0100FBE
:1005B00006BF2CED108A0120002081F825002CE9CF
:1005C000F00FC1F828C00CB403F00EFD0CBC1A608B
:1005D000D2F828C0BCE8F00F92F8250000280EBF22
:1005E0006FF0020E6FF0120EBCEC108A8CF30988CB
:1005F000704710B52A4A1268914209D8294C54F81C
:10060000214090E80F10A047EFF3098C8CE80F0011
:1006100010BD10B503F05AFCBDE810401E4B93E826
:100620000600914208BF7047EFF3098C1EF0100FCF
:1006300006BF2CED108A0120002081F825002CE94E
:10064000F00FC1F828C00CB403F0CEFC0CBC1A604B
:10065000D2F828C0BCE8F00F92F8250000280EBFA1
:100660006FF0020E6FF0120EBCEC108A8CF309884A
:10067000704710B503F09AFCFFF7CEBF10B503F03A
:1006800093FC03F093FCFFF7C7BF00001882000043
:100690005938000075380000C03B002034EF00E0FE
:1006A00000000000FCFFFFFF53B94AB9002908BF52
:1006B00000281CBF4FF0FF314FF0FF3001F0C0B8F1
:1006C000ADF1080C6DE904CE00F006F8DDF804E0A9
:1006D000DDE9022304B070472DE9F047089D044688
:1006E0008C46002B40F083808A42174647D9B2FAE5
:1006F00082F242B1C2F1200024FA00F0914097400A
:1007000040EA010C94404FEA1748230CBCFBF8F672
:100710001FFA87FE08FB16C143EA014306FB0EF1F0
:10072000994209D9FB1806F1FF3080F019819942EE
:1007300040F21681023E3B445B1AA4B2B3FBF8F0D0
:1007400008FB103344EA034400FB0EFEA64509D91A
:100750003C1900F1FF3380F00581A64540F202818B
:1007600002383C4440EA0640A4EB0E0400261DB1CA
:10077000D4400023C5E900433146BDE8F08702B903
:10078000FFDEB2FA82F2002A50D1CB1B4FEA174E9D
:100790001FFA87F80126B3FBFEFC210C0EFB1C336D
:1007A00041EA034108FB0CF38B4207D979180CF19D
:1007B000FF3002D28B4200F2E9808446C91AA3B20C
:1007C000B1FBFEF00EFB101143EA014408FB00F8F8
:1007D000A04507D93C1900F1FF3302D2A04500F231
:1007E000D9801846A4EB080440EA0C40BFE78B42CE
:1007F00009D9002D00F0B1800026C5E9000130467E
:100800003146BDE8F087B3FA83F6002E4AD18B4219
:1008100002D3824200F2B880841A61EB0301012006
:100820008C46002DA8D0C5E9004CA5E7C2F12003F5
:1008300020FA03F6974001FA02F04FEA174ED9402A
:100840003043030CB1FBFEF61FFA87F80EFB1611BE
:1008500043EA014306FB08F1994204FA02F409D97C
:10086000FB1806F1FF3C80F08D80994240F28A80AF
:10087000023E3B445B1A81B2B3FBFEF00EFB103329
:1008800041EA034100FB08F38B4207D9791800F1D4
:10089000FF3C73D28B4271D902383944CB1A40EAFB
:1008A000064678E7C6F1200C03FA06F422FA0CF3A8
:1008B0001C4320FA0CF701FA06F34FEA144E21FA12
:1008C0000CF11F433B0CB1FBFEF91FFA84F80EFB41
:1008D000191143EA014109FB08FA8A4502FA06F2B6
:1008E00000FA06F308D9611809F1FF3048D28A45A9
:1008F00046D9A9F102092144A1EB0A01BFB2B1FB1B
:10090000FEF00EFB101147EA014700FB08F8B8455E
:1009100007D9E71900F1FF312ED2B8452CD902389A
:10092000274440EA0940A7EB0807A0FB02894F458E
:10093000C64649461AD317D05DB1B3EB0E0267EB3A
:10094000010707FA0CFCF2404CEA0202F740C5E945
:10095000002700263146BDE8F0872E4628460BE7E3
:100960000646E9E61846FDE64345E5D2B8EB020E39
:1009700069EB04010138DFE70846D2E760468DE7FE
:100980008146B9E7664675E730464AE7ACF1020CA6
:10099000394413E702383C4424E700BF03685A0097
:1009A0004CBF43F0004323F000431844704700BF9E
:1009B0002DE9F84329B34F1E044615463E464FF035
:1009C000000808EB060101EBD171491004EBC109E5
:1009D0004846FFF7E3FF0346C80008308F42204433
:1009E00009D0AB4209D8FFF7D9FF0138A8420AD293
:1009F00001F10108E5E7AB4205D9884501D04E1E5B
:100A0000DFE74FF000094846BDE8F883012807D02A
:100A1000022807D0044B00280CBF1846002070475E
:100A20000248704702487047D1100000D5100000FE
:100A3000D910000030B5234B83B004468D1E3BB364
:100A400001A92846AFF30080E8B101992A46FFF7D3
:100A5000AFFF0146B8B1FFF7A1FF4B68A064012BBF
:100A60002BD0002B01F1040023DBFFF797FF0023BD
:100A7000C4E913030368002B10DBFFF78FFF20612D
:100A8000002003B030BD00230920236103B030BD36
:100A90000D490E48091AC9100191D7E7C3F3036045
:100AA000FFF7B4FF0028206114BF0020092003B025
:100AB00030BD0123C4E91303DCE7002323610520D3
:100AC000DFE700BF00000000748B0000B489000065
:100AD0000368DA0710B5044606D49B0700F1480006
:100AE00009D500F04BFC2368590709D51A070ED524
:100AF000DB0613D510BD00F039FC23685907F5D487
:100B000004F1D00000F042FC23681A07F0D404F589
:100B1000A87000F043FC2368DB06EBD404F5E87012
:100B2000BDE8104000F07EBC0346006800B11844E8
:100B3000704700BF09207047704700BF70B504467A
:100B40000E46316C2046FFF775FF054688B9336CB9
:100B50006361324623692146012098470828F0D076
:100B6000072806D12846316CFFF7E6FF301D00F05C
:100B7000F1FB04F01FFD00BF2DE9F0470D1D0646F7
:100B800014460FCDADF5727D0DF10C0CACE80F00E5
:100B90000FCDACE80F000FCDACE80F0095E80F00CB
:100BA00002ADF768D6F818808CE80F0000232B60A0
:100BB00021E02B6C73614FF4F07229467AA800F0A3
:100BC00041FE33697AAA314650469847889BCDE961
:100BD000005821466B648146334632460120B847AF
:100BE0000446E8B94FF4F0727AA9284600F02AFECC
:100BF000B9F1080F1BD1296C3046FFF71BFF0934F0
:100C00005FFA84FA81460028D3D0AB6B4AF010011A
:100C1000CDE9005832466B6401203346B84708B12D
:100C20004FF0090948460DF5727DBDE8F087B9F12E
:100C3000070FF5D12046296CFFF77EFF03A800F0CF
:100C400089FB00BF406C7047F0B5CB6B0B640E1D89
:100C50000F4605460FCEF9B001AC0FC40FCE0FC43E
:100C60000FCE0FC496E80F004FF0FF3684E80F0058
:100C7000009606E02B696A462946984708280446EC
:100C800008D110992846FFF7D5FE0028F2D0092098
:100C900079B0F0BD6846FFF71BFF062CF7D1394647
:100CA0002846FFF74BFF00BF30B4DD6BC1608261A7
:100CB00019461D64002230BC5EE700BF70B5C668EF
:100CC00043690B64AEB903690A4604460D46014602
:100CD00002209847072805D008280FD1294620462A
:100CE000FFF72CFF3046296CFFF726FF281D00F088
:100CF00031FB0122FFF740FF04F05CFC04F05AFCDA
:100D0000C2681AB1CA6B0A64002235E79CE700BFCB
:100D1000704700BF836801460BB101201847704738
:100D2000012912D009D873B90F2A0CD800EB82021E
:100D300018465368009A136070470339012994BF1D
:100D4000012002207047022070470846704700BF0C
:100D500010B584B0002303AC0A4600941946FFF78F
:100D6000DFFF039804B010BD012912D009D873B970
:100D70000F2A0CD800EB8200009A126842601846D5
:100D800070470339012994BF0120022070470220D7
:100D900070470846704700BF10B584B0002303AC0D
:100DA000039200940A461946FFF7DEFF04B010BD17
:100DB000F0B5D36B1364151D8C4606460FCDADF50B
:100DC0000F7D17AC0FC40FCD0FC40FCD0FC495E826
:100DD0000F004FF0FF3784E80F006546169710E0CC
:100DE000FFF7DAFF294616A8B047034616AA694658
:100DF000082083B9049B9847052804460CD009288D
:100E000009D026996846FFF715FE03466A460C216D
:100E100016A8002BE4D0092416A8FFF759FE204697
:100E20000DF50F7DF0BD00BF2DE9F04FCC6C89B002
:100E30000D4654F8041B0694174600F003081E469E
:100E4000002B79D00B0CDAB209048DF81D30022387
:100E500004EB820405918DF81C302B6DB8F1020F64
:100E600008BFAC6B13F001030CD0384605A900F0A5
:100E700073FB18B9082009B0BDE8F08F092009B04C
:100E8000BDE8F08FD4F800A0BAF1000FEDD00193C7
:100E900000F008030293022E4AD0B4F800A0B4F880
:100EA00002900434AA6C29F0010B0F2138469344B8
:100EB000FFF74EFF834539D82AF001025A44824297
:100EC00094BF002001204FEA490303F002030AF017
:100ED000010A43EA0A03012B49D0022B32D0002B2E
:100EE000CCD1B8F1000F02D0002840F0CD800434FE
:100EF000D4F800A0BAF1000FCDD105A9384600F012
:100F00002BFB0028BAD1019B002BB3D00F21384610
:100F1000FFF71EFF0E2102463846FFF73DFF384619
:100F20006A4A0F21FFF738FF0720A8E70020CAE729
:100F3000D4F804900834B5E7090203230591ADF80D
:100F40001C308AE7236823F0004BB8F1000F45D12D
:100F500028B1029A002A5CD0BBF1000F74D0002B9C
:100F600000DA04340BF1010B04EB8B04C0E7B8F199
:100F7000000F19D1B0B1D4E90023991C4FEAD27205
:100F80003FF47CAF05F158010133049100F09080EB
:100F9000201DFFF7C9FD04AB01462846AFF30080D2
:100FA00000285BD10834A3E70D213846D5F82090FE
:100FB000FFF7CEFE8145F5D1AB6A9C42F2D12046C7
:100FC000FFF7ECFC0F2102463846FFF7E5FE3846F6
:100FD0002A460021FFF7E0FE072050E70D213846A2
:100FE000D5F82090FFF7B4FE814501D02368B6E71D
:100FF000AB6A9C42FAD104220021C5E90B12A31866
:10100000C5F828B06B6323688B4259DB0123019339
:10101000A8E705F15803CDF80C8004F1040AB046A6
:1010200091461E460DE00496FFF77EFD04AB014697
:1010300000222846AFF3008009F101090AF1040AF1
:10104000E8B9D9455046EED138460D21FFF780FE6C
:10105000049B2862C5E90934062010E781460D216A
:101060003846FFF775FEB9F1020F286225D12B46ED
:10107000049A43F82C2F6B62AC620620FFE64646CA
:101080002368DDF80C806AE72046FFF787FC04340C
:101090000246AC6328461446AFF3008000283FF4B4
:1010A000EDAE384622460F21FFF776FE0720E6E632
:1010B00038460D21FFF74CFE2862049B6B62DBE78C
:1010C0000BF1010004EB80007AE700BF0000000094
:1010D0000023A9E60123A7E60223A5E62DE9F043B4
:1010E0000646C3B015461C46042900F2B980DFE865
:1010F00001F09A53B7290300002C40F0B180102A68
:1011000000F2AE800368D80600F1F38020AF3846C5
:1011100000F092F9B06B0023012404FA03F22A4292
:10112000014604D051F8042B47F823200846013328
:10113000042BF2D1B063384600F074F9002043B0BC
:10114000BDE8F083032C40F08B8094B204EB124393
:10115000102B4FEA124500F2838003681F0700F14D
:10116000D08020AF384600F03BF907EBC501B56BE6
:1011700054B10B46E81A01EBC401E4001A5843F8D5
:10118000042B8B42FAD125443846B56300F006F9AA
:10119000002043B0BDE8F083012C4FEA124895B21D
:1011A0005AD0052C5CD108EB0509B9F1200F57D8AE
:1011B000B8F10F0F77D9A946002D40F08880B36BA6
:1011C0006DB320AF4FF0000907EBC807043F03EBF6
:1011D000C50553F8041B47F8041FAB42F9D1B9F118
:1011E000000F0FD06F464146102938BF102107EB82
:1011F000C101843903EBC90553F8040B41F8040F0E
:10120000AB42F9D1012C00F08480B8F10F0FB56327
:1012100045D9B9F1000F02D0684600F0B7F80020B8
:1012200043B0BDE8F083DCB9876B2346012094B25C
:1012300006F1040C00FA03F22242394604D051F8B8
:10124000042B4CF823200F460133102BF2D115F458
:101250000050E4D1B76304E008EB0503102B03D979
:10126000022043B0BDE8F083B8F10F0FF8D833681F
:10127000DA0706D5304623F0030340F8483B00F078
:1012800079F820AF384600F075F8B36B002D99D18E
:101290001D460435B563384600F068F8BFE720A85E
:1012A00000F06CF8B5E7B9F1100F40D9A9F11009B9
:1012B0003368D90708D523F00103304643F0020311
:1012C00040F8483B00F05EF8B9F1000F32D03368C7
:1012D0005A0720D4B8F10F0F25D96F463846C8F108
:1012E000100500F057F8002DB36B7FF77CAF20AFEF
:1012F0006AE723F01003336006F5E87000F09CF80D
:1013000004E723F00803036000F5A87000F068F814
:1013100027E720AFBDE7304623F0040340F8D03B79
:1013200000F038F8D6E720A800F02CF8D5E74FF009
:101330000009BDE7B8F10F0F3FF641AF20AF3846C7
:1013400000F020F8B36B002D7FF43CAF384600F07E
:1013500015F864E700F1340191E838009C46A64690
:101360004CF8045D90E8FF0FE54600BD90EC210BC2
:10137000704700BF80EC210B704700BF90EC200B42
:10138000704700BF80EC200B704700BFD0EC200BF3
:10139000704700BFC0EC200B704700BFF0EC0201AB
:1013A000F0EC0211F0EC0221F0EC0231F0EC024121
:1013B000F0EC0251F0EC0261F0EC0271F0EC028111
:1013C000F0EC0291F0EC02A1F0EC02B1F0EC02C101
:1013D000F0EC02D1F0EC02E1F0EC02F1704700BF5A
:1013E000E0EC0201E0EC0211E0EC0221E0EC023161
:1013F000E0EC0241E0EC0251E0EC0261E0EC027151
:10140000E0EC0281E0EC0291E0EC02A1E0EC02B140
:10141000E0EC02C1E0EC02D1E0EC02E1E0EC02F130
:10142000704700BFB0FC0181B0FC0191B0FC01A18C
:10143000B0FC01B1704700BFA0FC0181A0FC01918C
:10144000A0FC01A1A0FC01B1704700BFEC4600B5B3
:101450002DE900502DE9FF1F4FF000032DE90C008E
:1014600001A9FFF7F1FBDDF840E012B0704700BFC3
:10147000EC4600B52DE900502DE9FF1F4FF00003A9
:101480002DE90C0001A9FFF719FCDDF840E012B0CE
:10149000704700BFEC4600B52DE900502DE9FF1F55
:1014A0004FF000032DE90C0001A9FFF729FCDDF83E
:1014B00040E012B0704700BFEC4600B52DE9005087
:1014C0002DE9FF1F4FF000032DE90C0001ABFFF7E2
:1014D000EBFBDDF840E012B0704700BFEC4600B512
:1014E0002DE900502DE9FF1F4FF000032DE90C00FE
:1014F00001AAFFF75DFCDDF840E012B0704700BFC5
:10150000027A7AB9437AA3B14268013B10B44372BC
:1015100013680321141D01721A024460026010BC9A
:10152000180E70470368013A02721A020260180E20
:101530007047B020704700BF00B585B003AA0023F4
:10154000009219460C22FFF7EBFB039805B05DF8FB
:1015500004FB00BFF0E700BF2DE9F043054685B06E
:101560000E464FF000083046FFF7CAFFB028044689
:1015700000F0B280070620D500F0F003802B4DD09C
:10158000902B36D0A02B60D0B02B74D0C02B00F0A5
:101590008B8000F0F803D02B0BD100F00702013252
:1015A00042F40022052301212846FFF797FD002879
:1015B000D9D0092005B0BDE8F0830DF10C09002356
:1015C00019468700CDF800900D222846FFF7A8FBAA
:1015D000FFB2039BCDF80090043760064CBFDF1BC1
:1015E000FF18002319460D2228460397FFF7BCFB7E
:1015F000B9E700F00D030D2BDBD003AF002300F0A3
:101600000F02194600972846FFF78AFB0023009730
:1016100019460D222846FFF7A7FBA4E73046FFF73F
:101620006FFF24022043B0F5004FC2D00401002315
:10163000A2B219462846FFF751FD0028B9D114F48B
:10164000004F18BF4FF001088DE7C24302F00703B7
:101650004FF47F621A41010702F47F624FF00003EA
:1016600048BF42F4804219462846FFF737FD00285C
:101670003FF479AF9DE7B12833D0B22800F08B80DA
:10168000B32839D000F0FC03B42B92D000F007024D
:101690000132012342F4002219462846FFF71EFDBD
:1016A00000283FF460AF84E7C62842D0C7284CD05A
:1016B00000F0F803C02B5BD0C82860D0C9287FF4A5
:1016C00078AF3046FFF71CFF020300F00F0002F472
:1016D00070220130024365E7B8F1000F18D00020F6
:1016E00068E73046FFF70CFF024600283FF461AF81
:1016F00010F0F003D0D05CE73046FFF701FF0103A4
:1017000000F00F0001F47021421C01230A43C3E7DB
:1017100003AC43460E22414600942846FFF700FBE7
:101720000094284643460F224146FFF71DFB4046E2
:1017300040E73046FFF7E4FE010300F00F0001F43C
:101740007021421C03230A43A6E73046FFF7D8FE68
:10175000024600283FF42DAF10F0F0037FF429AFCC
:1017600004212846FFF7BAFC00283FF4FCAE20E72E
:1017700000F00F020132032342F420228CE73046AE
:10178000FFF7BEFE00F0F00200F00F03103201334D
:1017900043EA023206E700230DF10C090D22194637
:1017A000CDF800902846FFF7BBFA3046FFF7A8FEB9
:1017B00002064FF002070CD5039B00F07F00B840F3
:1017C000034430460393FFF79BFE030607F1070728
:1017D000F2D4039BCDF8009000F07F0403F5017272
:1017E000BC400023144419460D2228460394FFF7F9
:1017F000BBFAB8E610B5C26C84B0536803248DF808
:101800000C401B0202F108040846D279019301A999
:1018100002948DF80D20FFF79FFE04B010BD00BFAD
:1018200008B5FFF797FE806C08BD00BF08B5FFF74D
:1018300091FEC06CC379023300EB830008BD00BF8A
:10184000704700BF844641EA000313F003036DD1E3
:10185000403A41D351F8043B40F8043B51F8043B73
:1018600040F8043B51F8043B40F8043B51F8043B7A
:1018700040F8043B51F8043B40F8043B51F8043B6A
:1018800040F8043B51F8043B40F8043B51F8043B5A
:1018900040F8043B51F8043B40F8043B51F8043B4A
:1018A00040F8043B51F8043B40F8043B51F8043B3A
:1018B00040F8043B51F8043B40F8043B51F8043B2A
:1018C00040F8043B51F8043B40F8043B51F8043B1A
:1018D00040F8043B403ABDD2303211D351F8043BBA
:1018E00040F8043B51F8043B40F8043B51F8043BFA
:1018F00040F8043B51F8043B40F8043B103AEDD269
:101900000C3205D351F8043B40F8043B043AF9D2B9
:10191000043208D0D2071CBF11F8013B00F8013B8C
:1019200001D30B8803806046704700BF082A13D399
:101930008B078DD010F003038AD0C3F10403D21AB1
:10194000DB071CBF11F8013B00F8013B80D331F8E5
:10195000023B20F8023B7BE7043AD9D3013A11F865
:10196000013B00F8013BF9D20B7803704B784370D0
:101970008B78837060467047000000000000000014
:1019800001F0FF01102A2BDB10F0070F08D010F830
:10199000013B013A8B422DD010F0070F42B3F6D134
:1019A000F0B441EA012141EA014122F007047FF04D
:1019B00000070023F0E80256083C85EA010586EAA4
:1019C000010685FA47F5A3FA87F586FA47F6A5FAE0
:1019D00087F68EB9EED1F0BC01F0FF0102F00702EC
:1019E00032B110F8013B013A83EA010313B1F8D197
:1019F0000020704701387047002D06BF3546033878
:101A0000073815F0010F07D1013015F4807F02BFB0
:101A1000013015F4C03F0130F0BC0138704700BF01
:101A200000000000000000000000000000000000B6
:101A300000000000000000000000000000000000A6
:101A400090F800F06DE9024520F007016FF0000CFE
:101A500010F0070491F820F040F049804FF00004A6
:101A60006FF00700D1E9002391F840F000F1080081
:101A700082FA4CF2A4FA8CF283FA4CF3A2FA8CF3B9
:101A80004BBBD1E9022382FA4CF200F10800A4FA20
:101A90008CF283FA4CF3A2FA8CF3E3B9D1E9042374
:101AA00082FA4CF200F10800A4FA8CF283FA4CF3AB
:101AB000A2FA8CF37BB9D1E9062301F1200182FA65
:101AC0004CF200F10800A4FA8CF283FA4CF3A2FA6B
:101AD0008CF3002BC6D0002A04BF04301A4612BA79
:101AE000B2FA82F2FDE8024500EBD2007047D1E97C
:101AF000002304F00305C4F100004FEAC50514F00B
:101B0000040F91F840F00CFA05F562EA05021CBFDB
:101B100063EA050362464FF00004A9E780B500AF11
:101B20004C4B93F83E30062B07D84A4B93F83E3087
:101B30000133DAB2474B83F83E20464B93F83C30F2
:101B4000002B12D1434B012283F83C20414B03224E
:101B500083F83D203F4B002283F83E203E4B00227D
:101B60009A703D4B01221A705AE03A4B93F83D307F
:101B7000012B02D0022B1AD033E0374B00225A70CF
:101B8000354B01229A70334B93F83E30042B42D9E7
:101B9000304B032283F83D202E4B002283F83E2059
:101BA0002D4B00229A702C4B01221A7033E02A4BE5
:101BB00000221A70284B01225A70264B93F83E30AF
:101BC000042B2AD9234B012283F83D20214B0022EC
:101BD00083F83E20204B00225A701F4B01229A703E
:101BE0001BE01D4B00229A701B4B01221A70194BEF
:101BF00093F83E30042B12D9164B022283F83D2075
:101C0000144B002283F83E20134B00221A70124B13
:101C100001225A7003E000BF02E000BF00E000BFF5
:101C20000C4B9B6B0C4A92781146184600F02EF92B
:101C3000084B5B6A084A52781146184600F026F9AC
:101C4000044B1B69044A12781146184600F01EF92D
:101C500000BF80BD5C0B0020580B002080B582B017
:101C600000AF2C4B012283F828202A4B0022DA6295
:101C7000284B002283F82820274B7B60254B00222D
:101C800083F83020234B0122DA6201212C2000F05E
:101C90008DF802467B681A611E4B012283F83020C2
:101CA0001C4B01221A751B4B00229A61194B002212
:101CB0001A751A4B7B60174B00221A77154B0122BD
:101CC0009A6101212B2000F071F802467B681A61AD
:101CD000104B01221A770F4B01221A700D4B002274
:101CE0005A600C4B00221A700A4B7B60094B002291
:101CF0001A72084B01225A6001212A2000F056F87E
:101D000002467B681A61034B01221A7200BF083732
:101D1000BD4680BD5C0B0020840B0020700B0020B2
:101D200080B500AF204B93F82830002B11D11E4B0B
:101D3000012283F828201C4BDB6A012B09D11A4BA6
:101D400093F83030002B04D0174B9B6B184600F0F3
:101D5000DCF8154B1B7D002B0FD1134B01221A759C
:101D6000114B9B69012B08D10F4B1B7F002B04D01B
:101D70000D4B5B6A184600F0C8F80B4B1B78002B24
:101D80000FD1094B01221A70074B5B68012B08D158
:101D9000054B1B7A002B04D0034B1B69184600F03F
:101DA000B4F800BF80BD00BF5C0B002080B590B0D0
:101DB00000AF78600B46FB70FB78002B27D107F152
:101DC000240300221A605A609A60DA601A615A612C
:101DD0002D4A7B6852F833307B62012387F8283024
:101DE000012387F829304FF0FF333B6307F12403C9
:101DF000184602F07BFE244A7B68DB001344012274
:101E00001A717B68DB00204A1344FB6336E0FB78E1
:101E1000012B31D107F10C0300221A605A609A603D
:101E2000DA601A615A61184A7B6852F83330FB60F5
:101E300001233B754FF0FF33BB6107F10C031846DC
:101E400002F0C6FE104A7B68DB00134402221A71BE
:101E50007B68292B0AD97B682C2B07D80A4A7B6818
:101E600052F833300121184602F0EEFE7B68DB00A9
:101E7000054A1344FB6301E00023FB63FB6B184638
:101E80004037BD4680BD00BF0400002080B586B04D
:101E900000AF78600B46FB707B687B617B69002B31
:101EA0002FD07B691B79022B2BD17B691B681B0A06
:101EB000DBB23B617B691B68DBB2FB603B69012BDA
:101EC00005D1FB68162B08D0FB68152B05D03B69A4
:101ED000042B0FD1FB681A2B0CD17B691A68FB7895
:101EE000012B14BF01230023DBB21946104602F078
:101EF000ABFE06E07B691B68FA781146184602F0D3
:101F0000A3FE00BF1837BD4680BD80B485B000AFCA
:101F100078607B68FB60FB68002B0ED0FB681B7948
:101F2000022B03D1FB6800221A7106E0FB681B79C3
:101F3000012B02D1FB6800221A7100BF1437BD4685
:101F40005DF8047B7047000080B400AFFEE700BF7F
:101F500080B483B000AF78607B68013B032B0BD863
:101F600001A252F823F000BF791F0000791F000082
:101F7000791F0000791F000000BFFEE7704700BF17
:101F8000704700BF0020002104460D46084803F0BA
:101F900037FB03F07BFB2046294600F05BFF05483A
:101FA000002101F013F800F069FF03F035FB000099
:101FB000395600004C82000080B584B000AFF86054
:101FC000B9601346FB71BB681F2B05D90D4B0E4A38
:101FD000FF210E4803F0F6FAFB68BA6853F8223086
:101FE00023F0807323F4E063FA79120202F4E062D2
:101FF00043EA0201FB68BA6843F8221000BF1037B9
:10200000BD4680BDB481000074820000C081000024
:1020100080B483B000AF78600B46FB707B68FA78C1
:102020001A7000BF0C37BD465DF8047B7047000096
:1020300080B584B000AF3B4600221A605A609A60B7
:10204000DA60064B3B6002237B723B461946002058
:1020500002F0BEFB00BF1037BD4680BD80F0FA0223
:1020600080B584B000AF074A3B1D07CA83E807006C
:102070003B1D1946002002F0F7FB00BF1037BD469C
:1020800080BD00BFFC81000080B500AF2A21084858
:10209000FFF7BEFF002212210648FFF78DFFFFF772
:1020A000C7FFFFF7DDFF044802F034FC00BF80BD2E
:1020B00000E00740009004405C82000080B582B0E0
:1020C00000AF7860034800F0A0FA00BF0837BD46B3
:1020D00080BD00BF983A002098B500AF094B0A4A6E
:1020E0001A600A4B0A4A1C1D13460FCB84E80F00E6
:1020F00000F0E1FA0346054A1360064B034A1A60F2
:1021000000BF98BD983A0020A03A0020783A0020FD
:102110004C820000903A002080B586B002AF87ED77
:10212000010A38600223FB60FFF7D6FF164800F073
:102130005CFA0346BB60154800F057FA0346BB60E3
:10214000002300930023FA681149124800F08AFA2C
:102150000346BB600023104A0121104800F0C3FA77
:102160000346BB60D7ED017A9FED0D7A67EE877A63
:10217000FCEEE77A17EE901A084800F0DBFA00BF91
:102180001037BD4680BD00BF983A0020903A00202D
:10219000A5210000A03A0020BD200000543A0020F4
:1021A00000007A4480B586B000AF7861184B1B6898
:1021B0001B68002B0CBF01230023DBB21A46154B12
:1021C0001A7011E03B461449184600F031FAFFF747
:1021D000A5FC0F4B1B681B68002B14BF01230023B9
:1021E000DBB21A460D4B1A700A4B1B78DBB2002B80
:1021F000E8D1084B00221A70786900F011F800202D
:1022000000F060FA002318461837BD4680BD00BFB5
:102210000882000000000020983A00208C3A00203C
:1022200080B582B000AF7860074B01221A60074B7F
:1022300000221A70FFF774FD054800F0E6F900234C
:1022400018460837BD4680BDB43A00200000002083
:10225000903A002080B586B000AF7861396100F017
:10226000FFFB00F0BCF80A4B1B6800221A60FFF766
:10227000F5FC00209FED070AFFF74EFF3B4606499D
:10228000184600F0D5F9002318461837BD4680BD22
:10229000088200006F12833A903A002080B500AFA8
:1022A000002002F0B7FB00BF80BD80B500AF012069
:1022B00002F0B0FB00BF80BD80B500AF022002F08D
:1022C000A9FB00BF80BD80B500AF032002F0A2FBD8
:1022D00000BF80BD80B500AF042002F09BFB00BFB3
:1022E00080BD80B500AF052002F094FB00BF80BD2B
:1022F00080B500AF062002F08DFB00BF80BD80B529
:1023000000AF072002F086FB00BF80BD80B500AFA4
:10231000082002F07FFB00BF80BD80B500AF092020
:1023200002F078FB00BF80BD80B500AF0A2002F04C
:1023300071FB00BF80BD80B500AF0B2002F06AFBCF
:1023400000BF80BD80B500AF0C2002F063FB00BF72
:1023500080BD80B500AF0D2002F05CFB00BF80BDEA
:1023600080B500AF0E2002F055FB00BF80BD80B5E8
:1023700000AF0F2002F04EFB00BF80BD80B500AF64
:10238000002002F05FFB00BF80BD80B500AF0020E1
:1023900002F0DAFF00BF80BD80B500AF012002F07F
:1023A000D3FF00BF80BD80B500AF022002F0CCFF9C
:1023B00000BF80BD80B500AF032002F0C5FF00BFA5
:1023C00080BD80B500AF042002F0BEFF00BF80BD1D
:1023D00080B500AF052002F0B7FF00BF80BD80B51B
:1023E00082B000AF02F030F90023FB7106E0FB7908
:1023F000184602F0E5FAFB790133FB71FB79042BF7
:10240000F5D9FFF741FE00BF0837BD4680BD80B457
:1024100000AFFEE780B400AFFEE780B400AFFEE798
:1024200080B400AFFEE780B400AFFEE780B400AF39
:10243000FEE780B400AFFEE780B400AFFEE780B4F3
:1024400000AFFEE780B400AFFEE780B400AFFEE768
:1024500080B400AFFEE780B400AFFEE780B400AF09
:10246000FEE780B400AFFEE780B400AFFEE780B4C3
:1024700000AFFEE780B400AFFEE780B400AFFEE738
:1024800080B400AFFEE780B400AFFEE780B400AFD9
:10249000FEE780B400AFFEE780B400AFFEE780B493
:1024A00000AFFEE780B400AFFEE780B400AFFEE708
:1024B00080B400AFFEE780B400AFFEE780B400AFA9
:1024C000FEE780B400AFFEE780B400AFFEE780B463
:1024D00000AFFEE780B400AFFEE780B400AFFEE7D8
:1024E00080B400AFFEE780B400AFFEE780B400AF79
:1024F000FEE780B400AFFEE780B400AFFEE780B433
:1025000000AFFEE780B400AFFEE780B400AFFEE7A7
:1025100080B400AFFEE780B400AFFEE780B400AF48
:10252000FEE780B400AFFEE780B400AFFEE780B402
:1025300000AFFEE780B400AFFEE780B400AFFEE777
:1025400080B400AFFEE780B400AFFEE780B400AF18
:10255000FEE780B400AFFEE780B400AFFEE780B4D2
:1025600000AFFEE780B400AFFEE780B400AFFEE747
:1025700080B400AFFEE784B080B582B000AF07F151
:10258000100C8CE80F003B69796A184600F090FF48
:1025900003467B607B6818460837BD46BDE880402F
:1025A00004B0704784B080B500AF07F1080C8CE828
:1025B0000F00BB68F969184600F09AFF03461846F9
:1025C000BD46BDE8804004B0704780B582B000AF22
:1025D000786039607B684FF0FF323968184600F048
:1025E00095FF78680837BD4680BD80B485B000AFE0
:1025F00078607B6801225A600123FB60FB68184603
:102600001437BD465DF8047B704780B584B002AFD7
:1026100078607B681B687A68526801921A69009238
:102620000FCBFFF7A8FF034618460837BD4680BD0D
:1026300080B584B002AF786039603B681B683A6847
:10264000526801921A6900920FCBFFF7ABFF3B680B
:102650005A687B6811461846FFF7B7FF7868083755
:10266000BD4680BD80B586B000AFF860B9607A60C5
:102670003B60FB68BA685A60FB687A689A60FB68DE
:102680000122DA603A68FB681A61FB680433396A30
:10269000184600F09BFC0246FB681A60FB681B684A
:1026A000002B14BF01230023DBB27B617B6918463A
:1026B0001837BD4680BD80B500AF00F0D9FC034699
:1026C000184680BD80B584B000AF786000F0D0FCC3
:1026D0000346FB60F86800F0D7FC0346BB6000BF10
:1026E0001037BD4680BD80B586B000AFF8607A6017
:1026F0003B600B46FB72FB6803F10C02FB689A60BF
:10270000FB687A685A60FB680433F97A3A681846BD
:1027100000F0C4FD0246FB681A60FB681B68002BD2
:1027200014BF01230023DBB27B617B691846183795
:10273000BD4680BD80B584B000AF786039607B68ED
:102740001B683968184600F0DDFD0346FB60FB6836
:1027500018461037BD4680BD80B584B000AF7860A4
:10276000114B1B68002B02D10F4B104A1A600E4B05
:102770001B68FB600C4B1A687B6813440C4A93423D
:1027800007D902F043FF03460C221A604FF0FF33D3
:1027900006E0054B1A687B681344034A1360FB6824
:1027A00018461037BD4680BDB83A00200000FF1F14
:1027B0000000002080B489B000AF294BFB60294A9B
:1027C000294B9A4216D00023FB610AE0264AFB6996
:1027D00052F823202349FB6941F82320FB69013388
:1027E000FB61FB689B08FA699A42EFD31F4B1D4AB5
:1027F0009A6002E01D4B1C4A9A601D4BBB611D4B49
:102800007B611D4BBB60BA687B69D31AFB6107E033
:102810007A69531C7B61BB69591CB96112781A70C3
:10282000FB695A1EFA61002BF2D1144B3B61144B29
:102830007B607A683B69D31AFB6104E03B695A1CF0
:102840003A6100221A70FB695A1EFA61002BF5D119
:1028500000BF00BF2437BD465DF8047B704700BF52
:1028600000000000000000000000000000ED00E09B
:1028700000000020808B0000B8960000380B00207C
:10288000243C002080B400AF6B4BD3F888306A4AF8
:1028900043F47003C2F88830684B4CF22052DA815E
:1028A000664B4DF62812DA81644B4FF4E9721A80B8
:1028B000634B1B78DBB203F00103002B0FD0614B9D
:1028C0009B78DBB203F00803002B2ED05D4B9B7886
:1028D000DBB25C4A43F00803DBB2937025E05A4B4D
:1028E00003F581531C331B68574943F0005201F52F
:1028F00081531C331A60554B1B6903F48073002B02
:1029000013D1524B1B6923F47C53504A43F4407358
:1029100013614E4B1B694D4A43F4807313614B4B5B
:102920001B694A4A23F400731361494B2A221A7027
:10293000454B03F5825304334FF08A721A60424BC1
:102940001B6823F44023404A43F4002313603E4BAA
:1029500003F5805304331B6823F440333A4943F4AE
:10296000803201F5805304331A60374B03F58153ED
:1029700018331B68344943F4007201F5815318334E
:102980001A60344B9B6C334A23F0807323F4E0636A
:102990009364314B00221A722F4B5B78DBB223F029
:1029A0006003DBB22C4A43F02003DBB253702B4BA5
:1029B00080221A70284B00221A73274BBA221A70F1
:1029C00000BF254B9B79DBB203F01003002BF8D13D
:1029D000214BDB78DBB2204A03F01F03DBB2D3705C
:1029E0001D4B13221A711C4B18225A711A4B5B791A
:1029F000DBB2194A43F04003DBB2537100BF164B00
:102A00009B79DBB203F04003002BF8D0124B1B780C
:102A1000DBB2114A03F03F03DBB2137000BF0E4B71
:102A20009B79DBB203F00C030C2BF8D100BF00BF85
:102A3000BD465DF8047B704700ED00E000200540D6
:102A400000F0074000D007400070044000D0034071
:102A500000E007400090044000400640005006405F
:102A600080B483B000AF9C4B1B78DBB203F0C00393
:102A7000002B40F0DE80984B5B79DBB203F0400323
:102A8000002B40F0B980944B1B78DBB203F00403B9
:102A9000002B4ED1904B1B7BDBB203F00303002BCA
:102AA00002D0012B03D006E08C4B7B6006E04FF494
:102AB00000437B6002E08A4B7B6000BF864B5B7803
:102AC000DBB203F03003002B23D0834B1B7BDBB244
:102AD00003F00303012B1CD07F4B1B78DBB203F008
:102AE0003803302B05D0382B07D14FF4C0637B80DF
:102AF0000EE04FF4A0637B800AE0774B1B78DBB2DB
:102B0000DB0803F00703202202FA03F37B8000BFF7
:102B100009E0714B1B78DBB2DB0803F007030122ED
:102B200002FA03F37B807B887A68B2FBF3F37B6065
:102B300002E04FF400437B60674BDB78DBB203F0CD
:102B4000E003E02B51D0E02B00F2B080C02B45D049
:102B5000C02B00F2AB80A02B39D0A02B00F2A680B6
:102B6000802B2DD0802B00F2A180602B21D0602BF8
:102B700000F29C80402B15D0402B00F29780002B58
:102B800002D0202B07D091E07A6813469B001344B3
:102B9000DB017B608BE07A6813469B0013441B02C9
:102BA0007B6084E07A6813461B019B1ADB017B6023
:102BB0007DE07A6813469B0013445B027B6076E0FD
:102BC0007B684FF4377202FB03F37B606FE07B6836
:102BD0004FF4B76202FB03F37B6068E07B6840F66A
:102BE000950202FB03F37B6061E07B6840F6713283
:102BF00002FB03F37B605AE0374B1B79DBB29BB2DD
:102C000003F01F039BB201337B807B88334AB2FB06
:102C1000F3F37B60304B5B79DBB29BB203F01F03B5
:102C20009BB218337B807A887B6802FB03F37B605E
:102C30003DE0294B1B78DBB203F0C003402B1AD1D7
:102C4000254B5B78DBB203F00103002B03D14FF47B
:102C500000437B602BE0204B1B7ADBB25B0803F068
:102C60000703012202FA03F37B807B881D4AB2FB33
:102C7000F3F37B601BE0184B1B78DBB203F0C0035F
:102C8000802B23D1144B1B7BDBB203F00303002BFF
:102C900002D0012B03D006E0104B7B6007E04FF41D
:102CA00000437B6003E00E4B7B6000E000BF0E4BF7
:102CB00003F5825304331B681B0F03F00F0301332A
:102CC0007A68B2FBF3F3094A136000E000BF0C37E7
:102CD000BD465DF8047B70470040064080F0FA0274
:102CE000006CDC0200093D00007004407C01002003
:102CF00000B5DFF80CC000DFDFF808C000DFFEE73A
:102D00006D2F0000852F00002DE9F041344C237811
:102D100053B1344B1B68FF229A70334A00200123C1
:102D200010702370BDE8F081304B3148196800F015
:102D30000BFD00284CD101F079FB2A4B21781B6850
:102D4000FF229A700029E8D12A4A1368002B44D048
:102D5000556845B12A78002A38D1191D890089B2F1
:102D6000284600F0B5FD244B244A1E68156096B332
:102D70005D68EA1C062A2ED8DF688FB9291D304607
:102D80003B463A4601F010FA054620B31C4B1D4A5B
:102D9000681E53F82050AB6A5A631B4B1D60BCE79A
:102DA0003946134800F0DEFC8046A0B1291D41EAF7
:102DB000072130460023424601F0F6F90546002877
:102DC000E4D141460A4800F0F1FCE6E70D46CAE7C7
:102DD0008520BDE8F0810025DFE71D46C3E700BF81
:102DE0007C3B0020C03B00207D3B0020288200006F
:102DF000582E002040820000308200004C3A002013
:102E00001C3A0020F12C0000283A002038B50F4C65
:102E1000207808B1002038BD0D4D2B6893F82410A0
:102E200001F072F92B68DA78FF2A03D19A6A20320E
:102E300082F309886A682AB101F066FB01232370D6
:102E4000002038BDC5E90023F6E700BF7D3B002028
:102E5000C03B002010B5EFF305845CB9EFF3148498
:102E6000E40703D5DFF810C000DF10BDBDE8104057
:102E7000FFF74ABF822010BD092D000010B588B0B1
:102E8000EFF305841CBBEFF3148404F00304022C5D
:102E900024D0032C14D0012C16D008AC84F309885C
:102EA000114C2478E40715D4032484F31488BFF369
:102EB0004F8FBFF36F8FDFF834C000DF08B010BD55
:102EC000094C2478E407F6D5FF2008B010BD822015
:102ED00008B010BD022484F31488E8E7024C24787B
:102EE000E407E8D4E0E700BF188200000D2E0000E0
:102EF00098B3F8B5066876B34768FB1C062B2AD84A
:102F0000C26804460D46BAB11146154800F02AFCC5
:102F1000064600B36268E1682068043242EA012193
:102F20002B46324601F040F9044660B931460C4860
:102F300000F03CFC2046F8BD0B463046391D01F040
:102F400033F9044638B1601E064B074A53F8200097
:102F5000836A5A63F8BD0020F8BD0020704700BFA7
:102F6000582E00201C3A0020F12C000008B501F07A
:102F7000C3F818B10138024B53F8200008BD00BF58
:102F80001C3A0020D0B1820718D138B50478BCB9FA
:102F9000C28C0346C0785AB1DD6A01F069F9FF2896
:102FA00010D04DB12946084800F000FC204638BD3D
:102FB00001F05EF9FF2805D0002038BD8020704761
:102FC000802038BD812038BD582E0020F8B5EFF3A1
:102FD00005848CB9EFF31484E40702D41F4C2478E1
:102FE00064B1DFF888C000DFF8BD0B463046391DFC
:102FF00001F0DAF8044640BB0020F8BD0028FBD001
:103000000668002EF8D04768FB1C062BF4D8C2686F
:103010000D460446002AE8D01146114800F0A2FBF4
:1030200006460028E8D06268E1682068043242EA77
:1030300001212B46324601F0B7F8044628B9314643
:10304000074800F0B3FB2046F8BD601E054B064A5A
:1030500053F82000836A5A63F8BD00BF7D3B00200F
:10306000582E00201C3A0020F12C0000F12E000008
:1030700010B5EFF305841CB9DFF808C000DF10BD00
:10308000002010BD6D2F000010B5EFF305841CB9B2
:10309000DFF808C000DF10BD822010BD852F0000C2
:1030A000A0B103689BB143688BB101290ED830B43D
:1030B0000A4C24686CB11C795CB9012559711D71E9
:1030C0001C60C3E9042030BC184670470023184632
:1030D00070470023184630BC704700BF283A0020D4
:1030E000820727D130B3002951D0F8B5314B1A6887
:1030F000002312F1FF3643F1FF3704464FF47A7094
:10310000E0FB016730463946FDF7CEFA2379012B03
:1031100012D0022B0CD1284D2A684AB1944238D0E3
:10312000114602E09C4228D019460B68002BF9D1C9
:103130008120F8BD802070471F4DE06002232A687F
:103140002371002A2AD09668B04206D22CE09D68EE
:103150008D420BD808462E461A461368811B002B59
:10316000F5D12360A16014600020F8BDA1609968CA
:103170002360081A06449E60F5E723680B60236805
:10318000002BE0D09968A66831449960D9E7862081
:10319000704723682B600BB11A46F3E70023A06049
:1031A00023602C600020F8BDA06093682260181A8C
:1031B0009060F6E71C820000803B0020830704D16A
:1031C00030B1D0E9041318687047002001467047F9
:1031D000014670472DE9F8432E4F3C68002C37D04C
:1031E000A368013BA360002B32D1DFF8AC902668C6
:1031F000D9F800503E6025B195F80080B8F1010F74
:1032000017D00420FEF7A4FEA2609A682360551B25
:1032100065449D600460DEB1B368CBB9D9F8005055
:1032200033683B60002DECD02A78012AE9D134467E
:103230001E46284600F0ACFB0028E2D02846214676
:1032400000F0AAFB6379012B04D084F80480E2E744
:10325000BDE8F8833868E56890B1D0F808C06545E6
:1032600006D211E099689142CED815468C46184690
:103270000368A5EB0C02002BF4D12360A260C9E720
:103280002060A5603C60C6E7A560836820605D1B88
:103290008560F7E7803B00204C3A002030B5EFF323
:1032A00005840CBBEFF31484E40702D4124C247899
:1032B0002CB1DFF84CC000DF0346184630BDC0B16A
:1032C0000368002BF9D04368002BF6D001290ED8F3
:1032D0000A4D2D6845B11D794DB901241D60597104
:1032E000C3E904201C71E8E70023184630BD2346DB
:1032F000E3E70346E1E700BF7D3B0020283A0020DA
:10330000A130000010B5EFF305841CB9DFF808C048
:1033100000DF10BD822010BDE130000008B50B4D6C
:10332000EFF305804FF0FF310028F9D12868DFF86E
:1033300020C000DF1028F3D10846DFF818C000DFF6
:1033400004460028ECD00846A047E9E74C3A0020A4
:1033500039350000BD31000010B570B183070CD1C4
:10336000037853B90B0C1B043BB9034688B21C8B82
:10337000D97800F029FD204610BD4FF000442046CA
:1033800010BD00BF10B570B183070CD1037853B9DD
:103390000B0C1B043BB9034688B21C8BD97800F098
:1033A0003FFD204610BD4FF00044204610BD00BF39
:1033B0002DE9F0414FEA10484FEA0848B8F1000FF4
:1033C00048D10D46044640B380B291B14A1C5DD04D
:1033D000344B994263D8344B1A684FF6FE714FF460
:1033E0007A73561E03FB0563B3FBF2F38B4200D8DE
:1033F00099B2012200F0C6FC022844D0002D14BF6F
:1034000040240024002001460E460F464546204633
:10341000294632463B46BDE8F08159B34B1C38D0B3
:10342000204B994238D8204B1A684FF6FE714FF462
:103430007A73501E03FB0505B5FBF2F58D4200D8EB
:10344000A9B200224FF6FF7000F09CFC02280BD0BE
:103450004024D7E7002586242E462F4620462946BD
:1034600032463B46BDE8F081104B1B680824B3F898
:103470001A80C7E742464FF6FF7000F083FC02282F
:10348000F2D04446BEE7A0460824BBE74FF6FF71E2
:10349000AFE74FF6FF71D4E74FF6FE71D1E74FF675
:1034A000FE71A6E700093D001C820000C03B002021
:1034B00070B5EFF305852DB9DFF830C000DF0446A5
:1034C000204670BD044668B183070BD103784BB921
:1034D0000B0C1B0433B988B2E178248B00F0ACFCF0
:1034E000204670BD4FF00044204670BD59330000A7
:1034F00010B5EFF305841CB9DFF80CC000DF10BD78
:103500004FF0004010BD00008533000070B5044648
:10351000EFF305854DB908461146DFF818C000DF06
:10352000C4E90001A260204670BD822303602046EA
:1035300070BD0000B1330000F0B5034685B000282F
:103540003AD00278012A2AD10C4600293ED04A1CE2
:1035500049D0264A91422CD8254A11684FF47A75F1
:10356000481E4FF6FE7205FB0404B4FBF1F49442CE
:1035700000D8A2B2184602A900F0B6F9012830D04E
:103580000020024603461020029904460D461646C6
:103590001F462046294632463B4605B0F0BD002571
:1035A00080242E462F462046294632463B4605B00B
:1035B000F0BD4FF6FE72DDE705460646074680245D
:1035C0002046294632463B4605B0F0BD0A4602A9D0
:1035D00000F08AF90128D3D1002002460346204694
:1035E000D2E74024F8E74FF6FF72C3E700093D0039
:1035F0001C820000274B2DE9F047C58CD3F80090C2
:10360000C66AAD0808BFC9F38D0506EB85046307DC
:1036100048BF043C8046A4F140074FF080738A46BF
:1036200044F8081C44F8043C38463822002102F0D3
:103630000BFBD8F81C3044F8203C19F0805F3B4667
:10364000C8F82870C8F830A01FD0112D1DD9103D22
:103650006D08012D12D06FF03702A2EBC5021444A1
:103660004FF0CC3243F8042C43F8082DA342F9D193
:10367000C5EB457507EBC50303F108073B1F9E42E9
:103680003CBF4FF0CC3347F8043C034B3360BDE8FC
:10369000F08700BF10820000A52E5AE290F8252086
:1036A000836A12B160331960704720331960704724
:1036B00010B490F82540836A2CB16033C3E900123E
:1036C0005DF8044B70472033C3E900125DF8044BEA
:1036D000704700BF084B1B68DA0107D5074B1B6812
:1036E000DB0703D5064B1B68002B00DB7047054B3F
:1036F00001221A70704700BFFCED00E0800E00E070
:10370000000E00E0843B002010B4094C2368002B1D
:10371000FCD0036B064A23601368002BFCD0C378EF
:103720005DF8044B43EA01239BB21380704700BF4E
:103730007C0000E0034A1368002BFCD0C0B210707C
:10374000704700BF7C0000E0034648B1072907D955
:1037500004390022084418605A5010465A607047D5
:1037600001207047F0B1F1B10B3170B4036821F062
:10377000030603E01968184649B10B46446802196C
:103780009D1AAE42F6D82CB9466000F108010846F1
:1037900070BC704702F10801C2E90036026070BCDB
:1037A0000846704701460846704700BFC0B1B9B12E
:1037B000083988421DD010B404689CB1A1421CD0C5
:1037C000236823B90EE01A681C465AB11346994281
:1037D000F9D15CB11B68236000205DF8044B704791
:1037E0000120704701205DF8044B704700205860AD
:1037F000F3E7034600205860704723460446E9E794
:10380000002A30B41FDB033222F003020C24BAB1C9
:1038100013198B4214D8044401448D1AA3189D42F5
:10382000C0E90041826015D3002100E003469818EA
:10383000854263501144F9D20020186030BC7047B3
:10384000012030BC704722F00042073222F007020C
:103850001024DCE72346EFE7EFF3108372B602682B
:1038600003F001030AB11168016003B962B61046A2
:10387000704700BF81420DD343688B420AD9EFF3F2
:10388000108372B602680A60016013F0010003D170
:1038900062B670470120704700207047426882B1CD
:1038A00010B500F01DF9044600F032FA01216170F4
:1038B0002046FFF7F3FE21460448BDE8104000F023
:1038C000E7B8428801324280704700BF8C3B00203D
:1038D0001039002389080122C18102808370C0E968
:1038E00001338381704700BF38B5838904467BB9B3
:1038F00015465AB1254A4368116823B300F0C8F849
:103900002846082100F0D0FB012038BD012038BD39
:103910004389C289181D01339BB254F82000086006
:103920009A42638104BF00236381636813B16378A3
:10393000022B0ED0EFF3108372B6A389013BA38153
:1039400062B6002038BD01224160C1E901304270F9
:10395000D6E7204600F0C4F800210546FFF79EFE9A
:103960002389E289E869191D01339BB29A4244F820
:103970002100238104BF00232381284600F0C8F9D9
:10398000284600F055FB002038BD00BFC03B00209A
:10399000C2898089101A704708B500F0D1F9BDE8D6
:1039A000084000F083BA00BF426870B503464AB1D0
:1039B0004578022D0E4604463DD0032D1AD0012D28
:1039C00030D070BD8489C08984425AD218890430AD
:1039D00043F82010EFF3108172B699890131998173
:1039E00062B61989D889013189B288421981E8D132
:1039F0001A8170BD0846FFF72FFF05460028E0D06A
:103A0000204600F06DF829460446FFF747FE0123E3
:103A10006370204600F07CF921461C48BDE87040E8
:103A200000F036B800F05CF8044632461021FFF78B
:103A30003FFE6570EDE700F053F800210546FFF703
:103A40002DFE2389EA69043344F82320EFF3108321
:103A500072B6A3890133A38162B62389E289013357
:103A60009BB29A42238104BF00232381012328466D
:103A70006B7000F04DF929460448BDE8704000F035
:103A800007B80320BDE87040FEF762BA8C3B002007
:103A900030B4057842688C78013DEDB2EAB1937894
:103AA000A34204D20FE0987884420ED81A46536895
:103AB000002BF8D10023022D4B60516000D9002269
:103AC0008A6030BC704713460246022D4B6051603D
:103AD000F5D8996030BC8A6070470246EAE700BFBB
:103AE00002784368013A59684160022A07D811B147
:103AF000002288605A6000229A60184670470022AF
:103B00005A601846704700BF034B5A684260002253
:103B100058608260704700BF8C3B0020816830B4E1
:103B200000292FD00B780A461BB992681378002B16
:103B3000FBD044684C604568546805B1A960013BFE
:103B40008578D9B2002C3AD0A378AB4204D20FE0EA
:103B50009A7895420ED81C466368002BF8D1002352
:103B60000229436060600AD90023836030BC70473B
:103B700023461446022943606060F5D8986084604B
:103B800030BC70474378012BF0D10E494C68A042FD
:103B90000DD04CB1626890420FD02AB15368984260
:103BA00006D01A46002AF9D10B78064AC7E70A461A
:103BB000456855600B78034AC1E72246F8E714468A
:103BC000CDE700BF8C3B002070B4164EF36823B3E2
:103BD000B58AA9422A4602D821E0A4B123469D8A8B
:103BE000DC682A449142F8D895B2C460D860C268B3
:103BF000036102B110616A1A82829A8A551B2944B4
:103C0000998270BC7047891A89B20022C26070BC68
:103C1000D86003619982828270473346F5E71C467B
:103C20003346E2E7A43B00202DE9F0432A4DEB6840
:103C3000002B4AD0A88A013880B2A882002844D13B
:103C4000264F274A3E78B2F800E0013EF6B2B84669
:103C50004FF0010C9A6832B15968516011B159683E
:103C60008A60586098607A689C78002A2FD0917892
:103C7000A14205D21EE091F802904C451CD80A469C
:103C800051680029F7D1022E5860536000D90022F4
:103C90005C789A60042C998A02D1DA8A72449A82FA
:103CA000DA6883F801C06AB11561C3E9030081B91C
:103CB0001346CFE711464246022E59605360E6D8BC
:103CC0008B60E5E7A982EA601A61BDE8F0834246AD
:103CD000D9E7A982EA60F8E7A43B00208C3B0020EA
:103CE000883B002083682BB142685A60426842B129
:103CF00093607047054B5A68904203D01346002AE0
:103D0000F9D1704742685A60704700BF8C3B002071
:103D100003699BB1C268DA6062B1998A10B4848A7F
:103D200021449982002413610023C46003615DF87B
:103D3000044B70479A82002303617047704700BFAD
:103D400030B40F4BDC78EFF3108272B69A7894425D
:103D500008D9551C1A789D70551CAC4214BFEDB2A1
:103D600000251D7062B6DC78944205D903EBC203CE
:103D7000C3E9010130BC7047022030BCFEF7E8B84F
:103D80009839002038B50F4B1C68238B00EA0305D7
:103D900052B1A8420BD006250A4660832946104638
:103DA00000F082F9012038BD35B90525F4E723EA92
:103DB00000002083022038BD23EA000020836583B1
:103DC000022038BDC03B00200139144B10B553F818
:103DD000214044B1218B6378628B0843062B2083FA
:103DE00018D0052B00D010BD10EA0203FBD063836E
:103DF00020EA020020832046FFF78AFF01232046A5
:103E00006370628B0821FFF753FC2046BDE8104029
:103E100000F00EB932EA0003EAD010BD1C3A0020CF
:103E20000139044B53F821301BB11A8B22EA0002EE
:103E30001A8370471C3A002008B50139064B53F825
:103E400021303BB101461846FFF77AFFBDE8084034
:103E500000F02CB808BD00BF1C3A002038B5038B19
:103E60004278458B1943062A018319D0052A00D0D0
:103E700038BD11EA0503FBD0438321EA050104465E
:103E80000183FFF745FF012320466370628B082101
:103E9000FFF70EFC21460448BDE83840FFF7F8BDA7
:103EA00035EA0103E9D038BD8C3B0020054B1A7878
:103EB00022B9054B4FF080521A60704701229A7068
:103EC000704700BF540B002004ED00E038B5234BD1
:103ED000234C186801234370FFF716FE6378A2781D
:103EE0001D46C2B104EBC5014B681A78184662B38F
:103EF000012A2ED0FFF7D2FCE3780135AB4212D075
:103F0000EFF3108372B6A378013BA37062B6A37877
:103F1000002BE7D1EBB213486370FFF7E1FDBDE87A
:103F2000384000F073B8EFF3108372B6A378013B0A
:103F3000A37062B6A578002DECD0002504EBC50176
:103F40004B681A781846002AD2D10989FFF786FFF4
:103F5000D2E78968FFF728FDCEE700BFC03B00200D
:103F6000983900208C3B00200A4A0B490B480C4B27
:103F700010B414680C600B4A002407210460196017
:103F800013685DF8044B43F07F434FF0FF3013603C
:103F9000704700BF1482000014E000E018E000E069
:103FA00010E000E020ED00E0704700BF08B50B4BCB
:103FB000186801234370FFF7A7FDFDF7E1FF084AEA
:103FC000136801331360FFF72FFEFFF703F905486D
:103FD000FFF786FDBDE8084000F018B8C03B0020A0
:103FE000883B00208C3B0020064B1B68D3E90A323B
:103FF0009A4203D81268044B9A4202D00120FDF77E
:10400000A7BF7047C03B0020A52E5AE2064A074BC7
:1040100012785860022141702AB11B68984202D080
:10402000C078FFF787BB7047843B0020C03B00206F
:1040300038B500B3194D82780446286883789A42CF
:1040400011D9FFF761FD164A2B6812780120022171
:1040500058706C606170DAB1A34219D0E078BDE8A5
:104060003840FFF767BB0123637021460D48BDE868
:104070003840FFF70DBD0B48FFF732FD084A074BEC
:10408000127858600221417012B11B68984200D129
:1040900038BDC078BDE83840FFF74CBBC03B0020BE
:1040A000843B00208C3B002000B9704738B54FF6A8
:1040B000FF720E4D90420C462B6804D00146184604
:1040C000FFF782FD2B685C700948FFF709FD094B7B
:1040D00068601B78022242703BB12B68984204D082
:1040E000C078BDE83840FFF725BB38BDC03B002095
:1040F0008C3B0020843B0020024B186800B1C07844
:10410000704700BFC03B002038B5C0B1214B1B88B1
:10411000834237D30138204B53F82040002C31D054
:104120001E4DA1702B6884F824109C420CD02046B0
:10413000FFF7F4FC6378012B26D0002038BD174D23
:104140002B68997083F82410154C626892788A4223
:10415000F3D919462046FFF79BFC2B6801225A70C1
:104160002046FFF7BDFC0F4B68601B7802224270AF
:10417000002BE2D02B689842DFD0C078FFF7DAFA44
:10418000002038BDFF2038BD0548FFF7A9FCFFF728
:104190004FFFD2E70C8200001C3A0020C03B0020F9
:1041A0008C3B0020843B00202DE9F04111F0FF0FF3
:1041B0000D460646294890461F4608BF0135FFF7C1
:1041C0004BFB044660B30023C5F30F214FF480720C
:1041D000EDB2C0F82C80C761C184857080F824508E
:1041E00002800362C0E90133C0E90333C0E905334B
:1041F00080F82530C1B120463146FFF7FBF9184B56
:10420000188868B1174E33682BB33246012303E098
:1042100052F8041F69B12B46984203F10105F7D10A
:1042200000252846BDE8F0810F48FFF715FBE06246
:10423000E1E7E9B20D4A46F823401378E1702BB963
:104240002046FFF7F5FE2846BDE8F0810121204613
:10425000FFF75AFAF4E701210D46EBE7A00B002027
:104260000C8200001C3A0020480C0020843B0020F7
:104270002DE9F84F664E346800285ED0E37883421B
:104280005BD0644B1B888342C0F0BF80471EDFF8C1
:1042900098B15BF82790B9F1000F00F0B68048465E
:1042A000FFF720FD4846FFF733FDD9F8204044B31F
:1042B0006368DFF86CA14FF001082046DBB1FFF71F
:1042C0000FFC00210546FFF7E9F92846FFF720FD1E
:1042D00085F8018029465046FFF7DAFBE2682B6A31
:1042E000E360A560A4F802802C6252B11446204617
:1042F0006368002BE3D1E2686380C4E90233002ADB
:10430000F4D1454DD9F82C10444800244BF82740EF
:10431000FFF7B0FA2B78C9F82C40002B70D1404C35
:1043200040484946FFF7A6FA636831689A788B7867
:104330009A425ED80020BDE8F88F00236370FCF736
:10434000EAF8A062FFF750FE33681C6A34B3636872
:10435000DFF8CC8001272046CBB1FFF7C1FB00215D
:104360000546FFF79BF92846FFF7D2FC6F702946F8
:104370004046FFF78DFBE2682B6AE360A56067802B
:104380002C6252B1144620466368002BE5D1E268E6
:104390006380C4E90233002AF4D13368DA78D96A39
:1043A00021481D4D531E002440F823401B48FFF7B1
:1043B00061FA33682A78DC62AAB91A481946FFF70D
:1043C00059FA002416483460FFF78AFB2B78706096
:1043D00002224270002BADD033689842AAD0C07838
:1043E000FFF7A8F9A6E718462146FFF78DF93368CD
:1043F000E3E7012320464B70FFF74AFB2046E3E743
:1044000021464846FFF780F989E7FF20BDE8F88F8D
:10441000C03B00200C820000843B0020480C0020A0
:104420008C3B0020A00B00201C3A002038B5FFF781
:1044300051F9244B1A8822B192000021224801F040
:1044400003FC224B22481988224D3422FFF7D8F969
:10445000214A224B12881968214842F00042FFF796
:10446000CFF9204B204A186811880822FFF7C8F9B5
:104470001E4B1B480024C5E90034C5E90244C5E9C8
:104480000444AC61C5E90844FFF7E6F91849E8625D
:104490002846FFF7AFF8174B174A1D601748184911
:1044A000127802236B70174BC270042204800A70CA
:1044B0001A704C60C3E903449C82BDE83840FDF7A4
:1044C0005DBD00BF0C8200001C3A0020208200006D
:1044D000A00B0020C83B00201082000024820000B6
:1044E000480C0020503A002048820000000100FFE4
:1044F000491F0000C03B00202C820000983900209A
:104500008C3B0020A43B002008B51E4B1A6842F4E7
:104510007F021A601B681B0203F07F43DB43B3FA80
:1045200083F3194A194812680168DBB2C3F1080322
:10453000C2F30222934298BF531C6FF0807202FABA
:1045400003F303F07F4321F07F4213430360FFF73F
:104550000BFD0F4B0028186012DB00F1604000F5E6
:104560006440FF2202701A6853099B0003F1604304
:1045700003F5614302F01F02012101FA02F21A6001
:1045800008BD00BF20ED00E00CED00E01CED00E0F8
:10459000BC3B002073B50D4B0D4801251D604FF04D
:1045A000854440F20113ADF80030002600992660E2
:1045B00000F076FB4FF48073ADF8043001990448A5
:1045C00000F050FBA661256002B070BD000790426C
:1045D0000000044010B5044628B90A4B0A4A0B48AB
:1045E000CC2100F0EFFF4378FF2B09D000F00AFA4E
:1045F00063780133DBB2637000F0FAF9002010BD7C
:104600000120FCE788820000CB8200008D82000040
:104610000A4B00229A6403F140029A6303F13002CC
:104620009A6203F120029A6103F110029A60044A2F
:104630001360044BC3E90233704700BFC03A002047
:10464000BC3A0020103B002008B5FFF7E1FFFFF760
:10465000A1FF002008BD0000094B1A7802F03F02BC
:1046600042F080021A709A79C2F38102022AFAD1CA
:10467000044B00221A76044A1378002BFCD17047B1
:1046800000400640A000C842D400C842F0B504462D
:1046900089B00E46417A4148059100F05FFC2388BD
:1046A0000599042B30D1802801D1FFF7D5FF07AB46
:1046B000CDE9006322796379E179384800F08CFC18
:1046C000374B01221A71374BA2781A71E2781A70AF
:1046D000A3786BB12379012B03D161792F4800F0C6
:1046E00075FB2F4A2379304913700A789342FCD125
:1046F000A07A00284DD02948E37A627B217B00F024
:10470000B5FB002009B0F0BD082B1CD1802803D1D7
:104710000591FFF7A1FF0599214B204D00221A7149
:1047200007ABCDE90163E3790093A279237A2846A8
:1047300000F0B2FC2B7803F03F032B70AB7913F041
:104740000C0FFBD1BFE7802B26D1802807AF0DD0FF
:10475000134B1248059100221A71E3790093CDE9B9
:104760000167237AA27900F097FC05990B4D637BD2
:1047700000930197237B0022284600F005FD2B784B
:1047800003F03F032B70AB79C3F38103032BFAD102
:1047900099E7064B1876B5E70120B3E700400640DD
:1047A0002000C8420000C842C000C8428000C84281
:1047B000064B0A7853F8203003F1424303F5801387
:1047C0005B011A774A781A75704700BFAC83000006
:1047D00010B50C4630B11D4B1D4A1E4840F24F210A
:1047E00000F0F0FE8B7A012B17D10B79002B4B795F
:1047F000897914BF08220022002B14BF0423002350
:104800000029E17941EA020141EA0301124B18BF94
:1048100002200143186800F023FD04F10B01002081
:10482000FFF7C6FFA37A227A617A0C4800F06BFB8F
:10483000628940F201139A4203D1094A1378002B8E
:10484000FCD0084B22681A60002010BD488300008D
:1048500084830000F0820000AC830000004006402A
:10486000C400C842283B002008B530B1124B134A9F
:1048700013484FF4307100F0A5FE124B01221A606C
:10488000114B0A681A60114A114B126813445B01FC
:104890000A7A186840B93AB10879586148791861BC
:1048A0008879D860C87998601A604A7A82F00102E3
:1048B0005A60002008BD00BF668300009683000098
:1048C000F0820000F40790422C3B00207485000029
:1048D000110010C2054B00F0E002134400F01F006D
:1048E00003449B0001221A60704700BF4001A410DE
:1048F00008B5064800F0F6FA054A41F24403D358D9
:104900001B0F0133B0FBF3F008BD00BF00400640B1
:104910000070044037B5044628B91D4B1D4A1E4897
:10492000722100F04FFE1D4D04230093012202234B
:104930002846002100F09BFC19492046FFF7A6FEFF
:10494000637D0093237DE27CA17C284600F08FFCF0
:1049500041F20401237C6A581B0422F4403203F420
:10496000403313436B50637C2A689B0422F440223B
:1049700003F4402313432B6004F10E010020FFF7E2
:1049800017FFFFF7B5FF074B1860002003B030BDDD
:10499000B083000044840000BF8300000070044026
:1049A000A94900007C01002008B5FFF7A1FF40F6EF
:1049B000B833B0FBF3F0013800D208BD00BFFAE70E
:1049C000042808B506D9064B064A074840F2B1212B
:1049D00000F0F8FD054B185CBDE80840FFF77ABF12
:1049E0000A8400005F840000BF8300007984000017
:1049F000034A13681BB1013B136003B962B67047E9
:104A0000203B002072B6024A1368013313607047DE
:104A1000203B0020094B1B6853F8203063B101098B
:104A2000074A52F8212000F00F001077D0775A681B
:104A300012B1197B98681047704700BF243B0020D3
:104A400080840000204B2DE9F74F53F82040DFF819
:104A50007C90D4F82CB00601002798464FF0020A4B
:104A6000BBF1000F01D0102F09D104F1424404F52D
:104A7000801464010023636103B0BDE8F08F1BF074
:104A8000010F1DD0FDB2BB1900222946204601931B
:104A900000F0C8FCD9F80020019B52F823307BB10C
:104AA0003544C5F3031205F00F0558F82220157799
:104AB000D5775A6883F80CA012B1197B9868904793
:104AC0004FEA5B0B0137CBE780840000243B0020DA
:104AD00008B5034A034B0448FF2100F073FD00BFF3
:104AE0003E850000848400008E8400002DE9F84398
:104AF00004682F4BC4F30728054653F828902D4B24
:104B0000404653F82860FFF75BFF14F0E002E7B27D
:104B100001D0FFF7DDFF56F8273023F0807323F430
:104B2000E06343F4807346F82730394606EB870488
:104B3000484600F07DFC04F1424303F580135B011D
:104B40002A795A606A791A60AA791A61EB79D6F8DB
:104B5000C020BB401343C6F8C030297A56F827203E
:104B60000B0422F0877203F4702322F48032134383
:104B700046F82730D1B1104B13F90830002B15D06F
:104B800005DA0E4B0E4A5D210E4800F01BFD552B39
:104B900003DD0D4B0A4A5E21F6E75909012203F0B5
:104BA0001F0302FA03F3094A42F82130BDE8F883F3
:104BB0008086000094860000A8860000C384000060
:104BC00052850000D28400001385000000E100E05F
:104BD0002DE9F04104681A4B0546C4F30720E6B2FC
:104BE00053F82080174B53F82070FFF7E9FE14F0BC
:104BF000E00F01D0FFF76CFF57F8263023F08073E9
:104C000023F4E06343F4807347F8263001223146F1
:104C1000404600F00DFC07EB86046A6831464046CA
:104C200000F020FC04F1424303F580135B012A7A73
:104C30009A606A7A9A61AA7A5A61BDE8F08100BFE7
:104C4000808600009486000010B4054BC0F3072452
:104C50000A46C1B253F824005DF8044B00F002BCD0
:104C60008086000082B001919DF804309DF80620F6
:104C700001685B00D20002F0080203F00203134354
:104C80009DF8052043EA82039DF80720120102F0F7
:104C9000300221F0BE0113430B43036002B07047A2
:104CA0000B46C1F301225B0BC9B242EA810203F059
:104CB000780382B01343436002B07047012905D0E6
:104CC000022905D031B9044B18687047034BFBE744
:104CD0000348704700207047283B00202C3B0020F1
:104CE000006CDC02017B01F00301FFF7E7BF21FA52
:104CF00002F07BB19DF80030012B0BD0062A06D0C4
:104D000003D9072A07D000207047400970471423B1
:104D1000B0FBF3F070470C23FAE7000037B500F161
:104D2000424303F580135B0104461B7A8BB9FFF7FE
:104D3000D9FF22786378257B05F0030501460095AD
:104D4000C3F30113C2F3C2022046FFF7D0FF03B042
:104D500030BD014B1868FAE78401002010B522B17C
:104D6000B1F5004F08D900200DE0A1F5F44012384C
:104D700041F68564A04207D802EB4303034A32F8A8
:104D8000132001FB02F010BD1046FCE76485000013
:104D900010B50C4B03445B0104461B7D7BB9FFF748
:104DA000BDFF014658B1084B23445B0120461A7FE2
:104DB000E378BDE81040C3F34113FFF7CFBF0020F5
:104DC00010BD00BF060010C2030010C2037AC3F377
:104DD00042038B4210B50CD0104B03445B014900D9
:104DE0001A7801F00E012AB9037A03F0F00319438F
:104DF000017210BD00221A70094A0244520114784F
:104E0000002CFCD1047A04F0F0042143017201214A
:104E100019701378012BFCD1EBE700BF010010C221
:104E2000060010C208B50F4B03445B0102461B7D10
:104E300033B90D4B03445B01197E01F0FF0371B1DF
:104E40001046FFF74FFF137903F01F030133B0FB48
:104E5000F3F3507900F01F001830584308BD18468E
:104E6000FCE700BF060010C2040010C230B5447950
:104E700002F01F0504F0E0042C434471027901F0B4
:104E80001F0102F080020A4342EA431242F040024C
:104E9000D2B20271400100F18440D8300378002B77
:104EA000FCD030BD00F1424303F580135B011A7959
:104EB00002F0FF0372B1084B03445B011B7813B986
:104EC000064B18687047007A054AC0F34203106821
:104ED000D840704718467047010010C28401002076
:104EE000800100208379C3F38103022B09D0032BB7
:104EF00003D0012B03D1FFF7D5BFFFF793BFFFF717
:104F000047BFFFF7EFBE10B5D2009B00447802F018
:104F1000080203F0040309011A4301F030010A43B7
:104F200004F0C3042243427010BD0000037B01F073
:104F3000030203F0FC031343037359B9064B034404
:104F40005B011B7A33B1400100F18440C430037827
:104F5000002BFCD0704700BF010010C210B5034603
:104F60001C4C13F8061F03F14243044403F580135D
:104F70005B0164011A7C20791B7DC1F38101022948
:104F8000D2B2C0B2DBB211D0032916D0012905D0AC
:104F9000E3B9002A0CBF0820012010BD012A15D159
:104FA000A3B900280CBF02200420F6E772B958B953
:104FB000002B14BF40201020EFE73AB9002B0CBFA4
:104FC0004FF400708020E8E72020E6E74FF40070FF
:104FD000E3E700BF010010C22DE9F843DDF824909B
:104FE0000446884615461F46FFF7B8FF10F01D0F10
:104FF0004AD0264B23445B0100221A7723782246AD
:1050000003F03B0343F0440302F8063B02F1424243
:1050100002F58012560106F110021378012BFCD123
:10502000012D03D139462046FFF7D0FE637805F005
:10503000010203F0FC031343637033789D42FCD1FB
:10504000E2784FEA481303F0600302F09F02134333
:10505000E370E378C3F341134345FAD1A379C3F373
:105060008103012BFAD1089B984735B9084B1B687F
:10507000C9F800300020BDE8F883064B1B6823FA0E
:1050800007F7C9F80070F5E70120F4E7030010C244
:1050900084010020800100202DE9F04704469DF89E
:1050A0002060894615461F46FFF758FF10F07B0F1A
:1050B00082465FD049462046FFF700FE8046002822
:1050C0005AD02E4B23445B0100221A762C4B2344EA
:1050D0005B0103F11400027802F0FF01002AFAD10B
:1050E000284A22445201BAF1080F117106D0217BDF
:1050F00009F0030001F0FC01014321732178ED0068
:1051000005F0380501F003010D4345F080052570D9
:10511000197C0029FCD1BAF1080F06D1217B09F0D6
:10512000030001F0FC0101432173B9F1000F04D128
:10513000127A12B11A79002AFCD0E178720102F0D9
:10514000600242EAC71301F01F021343DBB2E370AF
:10515000E378C3F34113B342FAD1A379C3F38103D4
:10516000022BFAD1099B98470A9B0020C3F80080C4
:10517000BDE8F0870120FBE72120F9E7050010C218
:10518000060010C2010010C2F7B5044601911D4689
:10519000FFF7E4FE10F0B00F52D001992046FFF760
:1051A0008DFD064600284DD0284B6A1CB0FBF2F25C
:1051B000A2F5F412A2F590629A4245D8244B0199C7
:1051C00023445B0100221A71237803F03F0343F06C
:1051D00080032370A379C3F38103022BFAD1204605
:1051E000FFF7A4FE1B4B1C49234421445B014901EA
:1051F00000221A760A76194A2244520102F1140753
:105200003B78002BFCD1207905F01F0500F0E00071
:105210000543257163799DF8200003F0E00300F059
:105220001F000343637101230B763B78002BFCD0F6
:10523000137E002BFCD0099B00201E6003B0F0BD44
:105240000120FBE72120F9E74120F7E780841E00D9
:10525000010010C2040010C2050010C2060010C2F6
:10526000037803F0F0031943C9B20170704710B519
:105270009DF808401B05240403F4700304F4702413
:105280002343120643EA017102F07063194341F2AD
:105290004403C15010BD0000052838B506D90D4B98
:1052A0000D4A0E4840F2C32100F08CF90C4B53F824
:1052B00020500C4B53F820200B4B13445B01002271
:1052C0001A77AB7D14461BB105F11800FFF782F980
:1052D0002C7538BD78850000D885000097850000C2
:1052E000303B0020B0860000030010C2052838B50E
:1052F00006D90F4B0F4A104840F20A3100F062F90C
:105300000E4B53F820500E4B53F820000D4B034426
:105310005B0100241C75224640F2032100F0C1F815
:10532000EB7D1BB105F12400FFF754F96C7538BD16
:1053300078850000F285000097850000303B002052
:10534000B0860000030010C2F8B5324B53F820407D
:10535000314B53F82050237D074613B9637D002B52
:1053600057D02E4E2E447601337D2BB12C4B2B443F
:105370005B011B7D002B34D1337FF3B1284B2B44D1
:105380005B011B7FCBB1E368BBB12B7D2678F61A9E
:10539000F6B296B163682846197800F07BF8A36BE3
:1053A000002B2FD0214638469847E368013EF6B2DD
:1053B000002BEED13846FFF76FFF0321284600F09F
:1053C000A3F830B328460321BDE8F84000F0B4B894
:1053D000A168284600F061F8236B33B121463846B6
:1053E0009847AB7D002BF3D1C6E7A3680133A360D8
:1053F0002369013B23612369002BF2D13846FFF773
:1054000075FFB9E7636801336360E368013BE360FC
:10541000CBE7F8BD303B0020B0860000030010C28F
:10542000040010C20AB1C17670478176704700004F
:105430001F2908B505D9084B084A09482E2100F054
:10544000C1F8012303FA01F19A4243690CBF1943E1
:1054500023EA0101416108BD0F8600005286000069
:10546000188600001F2908B505D9074B074A0848C8
:10547000422100F0A7F8012303FA01F10AB14160CB
:1054800008BD8160FCE700BF0F8600006586000054
:10549000188600000379C17170470379C3790B70D6
:1054A000704710B50123CCB2090AA340032908D8DC
:1054B000DFE801F0020C1620DBB21AB102781343C8
:1054C000037010BD027822EA0303F9E7DBB21AB1D8
:1054D000C2781343C370F4E7C27822EA0303F9E702
:1054E000DBB21AB1827913438371EAE7827922EA47
:1054F0000303F9E7DBB21AB1427C13434374E0E7DC
:10550000427C22EA0303F9E70B0A032B12D8DFE8F7
:1055100003F002090B0D0379C8B243FA00F000F062
:10552000010070474379F7E7037BF5E7807CC9B258
:105530000841F4E70020704740F2071399422ED04B
:10554000B1F5847F10D2B1F5807F30D007D804291F
:1055500022D9481F022894BF042000207047B1F5CB
:10556000837F1FD00020704740F2013399421BD047
:105570000ED8B1F5027F06D240F2052081428CBFE1
:10558000042000207047B1F5407FEBD101230CE0EF
:10559000A1F206300128DEE70379C379E2E7802330
:1055A0004371DFE74023FBE702238374DAE704203B
:1055B0007047000008B5062000F0E0FB012002F073
:1055C000F7FD00BF00B50A4C2568144685B01A46A1
:1055D0000346E86844B1074D0091CDE901540649FE
:1055E00000F040F8FFF7E6FF044D2C46F4E700BF5B
:1055F00088010020C8860000D8860000D4860000FC
:10560000002301461A46184601F064BB014B186896
:10561000704700BF8801002008B50021044601F052
:10562000A9FB044B1868C36B03B19847204602F0EE
:10563000BFFD00BF0887000038B5084B084D5B1B55
:105640009C1007D0043B1D44013C55F80439984791
:10565000002CF9D1BDE8384003F010B9808B000070
:105660007C8B00000EB410B583B005AB064C53F82C
:10567000042B01930146206800F0DCFB03B0BDE879
:10568000104003B0704700BF8801002070B50D4E78
:105690000D4D761BB61006D0002455F8043B01349E
:1056A0009847A642F9D1094E094D761B03F0E0F860
:1056B000B61006D0002455F8043B01349847A642A2
:1056C000F9D170BD748B0000748B00007C8B0000DE
:1056D000748B00002DE9F04F01F10B05162D83B0FE
:1056E000064624D8102900F2B78000F0FDFA1025F4
:1056F00002211823DFF8F0844344A3F108025C6818
:10570000944200F0B580636823F003032344D4E996
:1057100002515A68E96042F0010230468D605A60D9
:1057200000F0E8FA0834204603B0BDE8F08F35F009
:10573000070500F19180A94200F28E8000F0D4FAB2
:10574000B5F5FC7FC0F090816B0A00F08C80042BD3
:1057500000F26681AB0903F1390103F13807CB0090
:10576000DFF884844344A3F108005C68A04206D1BA
:105770000CE0002A80F22281E468A04206D063682F
:1057800023F003035A1B0F2AF3DD3946D8F81040E3
:10579000DFF858C4644577D0626822F00302531BD7
:1057A0000F2B00F36F81002BC8E904CC80F26081DD
:1057B000B2F5007F80F01081D30801335009012237
:1057C0008240D8F8040058F83370A76008EBC30E85
:1057D0000243AEF10800E060C8F8042048F8334006
:1057E000FC608B1001209840904254D8104206D1A2
:1057F00021F003014000104201F10401FAD008EB4E
:10580000C1094C468E46E768BC4207D114E1002B23
:1058100080F21B81FF68BC4200F00E817A6822F0A2
:105820000302531B0F2BF2DDD7E902E4791945F08F
:1058300001057D6043F00105CEF80C403046C4F808
:1058400008E0C8E90411C1E902CC4D60BB5000F08A
:1058500051FA07F1080402E00C23336000242046CB
:1058600003B0BDE8F08F4FF4007340213F2777E786
:10587000DC68A34208BF02317FF445AFD8F810407E
:10588000DFF868C3644587D1D8F804208B10012065
:1058900098409042AAD9D8F80840676827F00307D3
:1058A000BD4202D87B1B0F2B77DCDFF84493CA4B39
:1058B000D9F800201B6801322B4404EB070A00F0E2
:1058C0002E8103F580530F3323F47F6B2BF00F0BE6
:1058D0005946304600F014FA411C024600F0EB80B5
:1058E000824500F2E680BD4B1968594419600846AC
:1058F00000F04B81D9F80010019301311BBFA2EBDE
:105900000A0A5044C9F80020186012F0070A00F093
:105910001481CAF108010A44CAF580519344083140
:10592000A1EB0B01C1F30B0949463046009200F090
:10593000E7F9421CDDE9002300F05C81801A00EBEE
:10594000090B1968C8F808204BF001004944444588
:105950005060196000F026810F2F40F225816068A9
:105960000C3F27F0070700F0010004EB070C384359
:105970004FF0050E0F2F6060CCE901EE00F242817E
:1059800050681446964B1A688A4238BF1960954B86
:105990001A688A4238BF196090E0621943F0010327
:1059A00045F0010565603046C8F80820536000F0F6
:1059B000A1F90834204603B0BDE8F08F2344E16824
:1059C0005A68A56842F00102E96030468D605A606D
:1059D00000F090F9083442E7B2F5206F4FEA522305
:1059E00061D3142B00F2BA8003F15C00C0005B337A
:1059F00008EB000758F80000083F874200F092804B
:105A0000436823F00303934202D980688742F7D1A9
:105A1000C768D8F80420C4E90207BC60C460E0E6A7
:105A2000142B59D9542B00F2A1802B0B03F16F01D9
:105A300003F16E07CB0093E60EF1010E1EF0030F8B
:105A400004F108047FF4DFAE51E03A443C46536869
:105A5000F96854F8085F43F0010353603046E96089
:105A60008D6000F047F9FAE6E90805F1080341E620
:105A700022443046536843F001035360083400F079
:105A800039F9ECE6611943F0010745F0010565605D
:105A90003046C8E90411C1E902CC4F60A35000F0C0
:105AA00029F90834DBE6930903F13900C0003833E3
:105AB0009EE7444564D0D8F80840606820F0030BA6
:105AC0005D45ABEB050302D80F2B3FF766AF3046C1
:105AD00000F010F90024C2E603F15C0103F15B075A
:105AE000CB003DE659F808394B4540F0AA8011F04B
:105AF000030F01F1FF31F5D1D8F8043023EA000398
:105B0000C8F80430400098423FF6C5AE18B9C2E666
:105B100040000EF1040E1842FAD071466FE603F110
:105B2000100BD5E69A104FF0010ED8F804300EFA9B
:105B300002F21A43C8F804206DE702EB0B01494258
:105B4000C1F30B0949463046009200F0D9F8431CD6
:105B5000DDE900237FF4F2AED146F2E6542B26D8DD
:105B6000130B03F16F00C0006E3341E7B3F5AA7F5A
:105B700026D8EB0B03F1780103F17707CB00EFE5B3
:105B8000164B186858441860B4E6CAF30B0CBCF105
:105B9000000F7FF4AFAED8F80840BB444BF00100D3
:105BA0006060EFE61446EDE6012353608FE7B3F53E
:105BB000AA7F33D8D30B03F17800C000773317E7FF
:105BC00040F25452934233D8AB0C03F17D0103F100
:105BD0007C07CB00C4E500BF783B0020483B002099
:105BE000703B0020743B0020B8050020C005002059
:105BF000C0090020AAF1080AD344ABEB020B4FF016
:105C000000099EE604F108013046009301F01AFBFA
:105C1000D8F80840009B60681968B3E640F2545019
:105C200083420AD8930C03F17D00C0007C33DFE689
:105C30004FF47E737F217E2792E54FF47E707E23A2
:105C4000D6E6D8F804305DE7F0B4860746D0541E97
:105C5000002A3CD0CAB2034601E0013C37D303F826
:105C6000012B9D07F9D1032C2AD9CDB245EA052590
:105C70000F2C45EA054534D9A4F1100222F00F0C8F
:105C800003F120071609674403F1100242E90455A5
:105C900042E902551032BA42F8D1721C14F00C0FCE
:105CA00003EB021204F00F0613D0331F23F003039B
:105CB0000433134442F8045B9342FBD106F003041F
:105CC0002CB1CAB21C4403F8012B9C42FBD1F0BC9E
:105CD000704734461346002CF3D1F8E714460346C8
:105CE000C1E71A462646E0E7014801F051BD00BF72
:105CF0000C3C0020014801F04DBD00BF0C3C0020D1
:105D000038B5074D0022044608462A60FCF724FDFA
:105D1000431C00D038BD2B68002BFBD0236038BD5E
:105D2000203C00201F2938B5054621D8D0F8DC22B8
